:020000040000FA
:100000004087FF1F99020000B7020000B9020000FC
:10001000BB020000BD020000BF02000000000000A3
:10002000000000000000000000000000C10200000D
:10003000C302000000000000C5020000C70200006B
:10004000C9020000C9020000C9020000C902000084
:10005000C9020000C9020000C9020000C902000074
:10006000C9020000C9020000C9020000C902000064
:10007000C9020000C9020000C9020000C902000054
:10028000DFF810D000F028F800480047B50500005E
:10029000AFF300804087FF1F4FF000504FF0000287
:1002A000002100A1814200D90244084802600848A8
:1002B000804708480047FEE7FEE7FEE7FEE7FEE767
:1002C000FEE7FEE7FEE7FEE7FEE7000008ED00E0E0
:1002D0001905000081020000064C074D06E0E068A9
:1002E00040F0010394E8070098471034AC42F6D37D
:1002F000FFF7CAFFC4050000E405000070B58C18C4
:1003000010F8015B15F0070301D110F8013B2A1129
:1003100006D110F8012B03E010F8016B01F8016B16
:100320005B1EF9D12B0705D40023521E0DD401F812
:10033000013BFAE710F8013BCB1A921C03E013F8DB
:10034000015B01F8015B521EF9D5A142D8D3002010
:1003500070BD000010B501460022114B1B6853B957
:1003600040F223130E4C236043F2102323602346F4
:100370001B6803B901220A4B0833186820F0F0000B
:1003800040EA01101860064B1B68012B06D10023C0
:10039000034C236023461B6803B9012210BD0000F3
:1003A0000004014010B500F06FF800F003F800F011
:1003B000B9F810BD1048008820F0400040300E49C8
:1003C00008800D484038008820F0800080300A49BD
:1003D000403908800848801E008820F04000064907
:1003E000891E088004484238008820F080000249B5
:1003F00042390880704700004638054070470000C9
:10040000FFFFFFFFFFFFFFFFFFFFFFFFFFFFFFFFFC
:10041000FFFFFFFFFFFFFFFFFFFFFFFFFFFFFFFFEC
:1004200030B5C1B04FF420344FF400556D110020A9
:1004300002E001AA1054401CFF28FAD910481149C3
:1004400008600846006800680D4908440D490968BD
:1004500008600C480068406809490844094909686F
:1004600048600848006801682046884705480068D9
:100470002A4601A943682046984741B030BD000094
:100480000480FF1F0080FF1F70B500244AF2015056
:100490001C4908801C481D490862002081F836006C
:1004A00000BF1A483C30007800F00105641C15B903
:1004B000B4F5805FF5D31648164908600520FFF7AC
:1004C00049FF0020114981F82A00002400BF0F488D
:1004D0003C30007800F02005641C15B9B4F5805F4D
:1004E000F5D305200949263108704FF4805400BF28
:1004F000201EA4F10104FBD14FF4254001490880DE
:1005000070BD0000FE430540102211000040054070
:100510008129F01F00410540002001490860704713
:1005200008ED00E04AF2015017490880174800889A
:1005300020F03F00203015490880081F008820F077
:100540003F002130091F08804FF425400E490880E4
:100550000F48406820F080600D49486008040D494C
:10056000C8600846C06840F40040C8600846C068DB
:1005700040F00050C86040F6772088600846C068A8
:1005800040F00C00C8607047FC3B0540163D05403C
:10059000008004400010024002E008C8121F08C199
:1005A000002AFAD17047002001E001C1121F002A81
:1005B000FBD1704710B5FFF7F5FEFFF731FF0020C4
:1005C00010BD0000E40500000080FF1F3C03000098
:1005D000FC0200001C0800003C83FF1F0404000014
:1005E000A6050000413209236101102108B501462A
:1005F000C94A126852B940F22312C74B1A6043F23B
:1006000010221A601A46126802B9012012BF122283
:10061000149206E0149A531C1693B2F57A7F180CC4
:10062000D10320BD4A10321268C2F31C6D2AF1D0EA
:10063000B90E1F1242B1B64A140C380E22F0100245
:100640001032B34B14331A60B21E100902F03F028D
:100650000AB1012212E03D2242B1AD261A42143AFB
:10066000AA241968196A10094A0B042303EB4231C2
:100670003F2853D1A44A0C4818080102521CA14B30
:100680000C242992080D1422F0700240321A6042A4
:100690001E0A609ABA969A9A939A9A909A3A8D7686
:1006A0000A118B9A7A869A9A849A5A818E9C700241
:1006B0007E8C100D01021A607A4A1268012A06D156
:1006C0004C22784B18101802B9012008BD2DE9F80A
:1006D0004704468C461546E146234604F003101DA8
:1006E00010B10120BDE8F887AE0805F0030149B15B
:1006F00059F826804FEAC10A4FF0FF30100AFA0A73
:10070000F040EA08086748200E6868B940F22310F4
:10071000DFF890A1CAF82D43F210200813504612BA
:10072000681CB90127F61220149008E0129816F1FF
:10073000010ACDF84BA0B0FA1627584810301C68B3
:10074000C0F3206D28EFD0540E1F1058B15148143B
:100750000C1420F010280B1030DFF838A10AF11427
:100760000A543A4B241113F03F1A089C1112E03D31
:100770002058B1462C1A40147CDFF8102A19781939
:100780007A680D0FB138469DE73F20DFF8F4A01AD4
:100790003C3A480C5C12011E401CDFF8DC183A0C95
:1007A0001829B01420F0702B20300E1117221FE0F2
:1007B00059F8221318609BBF2EA85CF8D02A0E2A85
:1007C000C0845F270EE01B1D26821A10827A8C6877
:1007D00017521CB242DDD316BFD9B1C3F81280BB89
:1007E000BF1C467A19461119469A15427A4C425A4C
:1007F00010AA1A7016DA34A81201290C1307481629
:1008000068012808D119E26B14A01E113008B90143
:0C08100027384621E704000401400000E6
:020000040001F9
:10000000090000006101000008B50146C94A1268F4
:1000100052B940F22312C74B1A6043F210221A6001
:100020001A46126802B9012000BF0022009206E0C1
:10003000009A531C0093B2F57A7F00D10320BD4A89
:1000400010321268C2F30022002AF1D0B94A1032ED
:100050001268C2F3001242B1B64A1432126822F09A
:1000600010021032B34B14331A60B24A10321268C5
:1000700002F03F020AB1012200E0002242B1AD4A83
:100080001432126842F03F02AA4B14331A60012066
:10009000002000BF4A0B042303EB4231002853D158
:1000A000A44A0C32126822F00102521CA14B0C33FC
:1000B0001A601A46126822F0700240321A60421E1C
:1000C0000A6000BF0022009206E0009A531C0093D1
:1000D000B2F57A7F00D10320964A10321268C2F33B
:1000E0000022002AF1D0934A10321268C2F30012A3
:1000F00042B1904A1432126822F0100210328D4B35
:1001000014331A608B4A1032126802F03F020AB1AF
:10011000012200E0002242B1864A1432126842F005
:100120003F02844B14331A600120002000BF814A33
:100130000C32126822F070027E4B0C331A601A46A1
:10014000126822F001021A607A4A1268012A06D166
:100150000022784B1A601A46126802B9012008BDC5
:100160002DE9F84704468C461546E146234604F03F
:10017000030010B10120BDE8F887AE0805F00301C7
:1001800049B159F826804FEAC10A4FF0FF3000FA12
:100190000AF040EA08086748006868B940F223108E
:1001A000DFF890A1CAF8000043F21020CAF800005E
:1001B0005046006800B9012700BF0020009008E009
:1001C000009800F1010ACDF800A0B0F57A7F00D1C7
:1001D0000327584810300068C0F300200028EFD0F3
:1001E000544810300068C0F3001058B15148143022
:1001F000006820F010001030DFF838A10AF1140A6E
:10020000CAF800004B481030006800F03F0008B109
:10021000012000E0002058B146481430006840F04A
:100220003F00DFF810A10AF1140ACAF80000012704
:10023000002700BF0FB138469DE73F20DFF8F4A04C
:100240000AF1140ACAF800003A480C30006820F09D
:100250000100401CDFF8DCA00AF10C0ACAF800001B
:100260005046006820F070002030CAF800000022DC
:100270001FE059F82200186000BF2E4810300068B7
:10028000C0F300200028F8D02A4810300068C0F3DE
:10029000C00008B101270EE01B1D2648143000687D
:1002A00040F01000DFF88CA00AF1140ACAF8000030
:1002B000521CB242DDD300BFD9B1C3F8008000BFE9
:1002C0001C4810300068C0F300200028F8D01948FE
:1002D00010300068C0F3C00000B101271548143089
:1002E000006840F01000DFF84CA00AF1140ACAF8C8
:1002F000000010480C30006820F07000DFF834A0D7
:100300000AF10C0ACAF800005046006820F001000B
:10031000CAF8000007480068012808D10020DFF86B
:1003200014A0CAF800005046006800B901273846FA
:0803300021E700000004014078
:040000050000028174
:00000001FF
