:020000040000FA
:1000000058A9FF1F99020000DF020000E102000072
:10001000E3020000E5020000E7020000000000002B
:10002000000000000000000000000000E9020000E5
:10003000EB02000000000000ED020000EF020000F3
:10004000353B0000493B00005D3B0000713B000078
:10005000853B0000993B0000AD3B0000C13B000028
:10006000D53B0000E93B0000FD3B0000113C0000D7
:10007000253C0000393C00004D3C0000613C000084
:10008000753C0000893C00009D3C0000B13C000034
:10009000C53C0000D93C0000ED3C0000013D0000E3
:1000A000153D0000293D00003D3D0000513D000090
:1000B000653D0000793D00008D3D0000A13D000040
:1000C000B53D0000C93D0000DD3D0000F13D0000F0
:1000D000053E0000193E00002D3E0000413E00009C
:1000E000553E0000693E00007D3E0000913E00004C
:1000F000A53E0000B93E0000CD3E0000E13E0000FC
:10010000F53E0000093F00001D3F0000313F0000A8
:10011000453F0000593F00006D3F0000813F000057
:10012000953F0000A93F0000BD3F0000D13F000007
:10013000E53F0000F93F00000D40000021400000B5
:1001400035400000494000005D4000007140000063
:100150008540000099400000AD400000C140000013
:10016000D5400000E9400000FD40000011410000C2
:1001700025410000394100004D410000614100006F
:1001800075410000894100009D410000B14100001F
:10019000C5410000D9410000ED41000001420000CE
:1001A00015420000294200003D420000514200007B
:1001B00065420000794200008D420000A14200002B
:1001C000B5420000C9420000DD420000F1420000DB
:1001D00005430000194300002D4300004143000087
:1001E00055430000694300007D4300009143000037
:1001F000A5430000B9430000CD430000E1430000E7
:10020000F5430000094400001D4400003144000093
:1002100045440000594400006D4400008144000042
:1002200095440000A9440000BD440000D1440000F2
:10023000E5440000F94400000D45000021450000A0
:10024000F1020000F1020000F1020000F1020000E2
:10025000F1020000F1020000F1020000F1020000D2
:10026000F1020000F1020000F1020000F1020000C2
:10027000F1020000F1020000F1020000F1020000B2
:10028000DFF810D000F00AFA00480047917F000024
:10029000AFF3008058A9FF1F16484FF077010160A7
:1002A00015484FF07701016014484FF48851016000
:1002B00010484FF0760101600F484FF07601016061
:1002C0004FF000504FF00002002100A1814200D900
:1002D00002440B4802600B4880470B480047FEE78A
:1002E000FEE7FEE7FEE7FEE7FEE7FEE7FEE7FEE7E6
:1002F000FEE70000040805400C0805400008054022
:1003000008ED00E03D560000810200002DE9F05F9D
:100310000546002092469B46884606468146402474
:100320001BE0284641464746224600F013F9534653
:100330005A46C01A914110D311461846224600F081
:10034000FAF82D1A67EB01084F46224601200021DA
:1003500000F0F1F817EB00094E41201EA4F1010452
:10036000DFDC484631462A464346BDE8F09F40EA76
:1003700001039B0703D009E008C9121F08C0042A23
:10038000FAD203E011F8013B00F8013B521EF9D20A
:100390007047D2B201E000F8012B491EFBD2704732
:1003A0000022F6E710B513460A4604461946FFF741
:1003B000F0FF204610BD0EB540F2334102910021FE
:1003C000CDE900110A460B4600F01AF903B000BD52
:1003D0000EB540F2334202920022CDE900221346CC
:1003E00000F00EF903B000BD704770B504460D462D
:1003F0002946204604F066FD05F0B8F870BD704748
:10040000BFFFDFFFFFFEFFFFFFFFFFFFFFFFFFFF5D
:10041000FFFFFFFFFFFFFFFFFFFFFFFFFFFFFFFFEC
:100420002DE9F04D81EA030404F0004B21F0004572
:1004300014464FF0000A23F0004150EA050220D094
:1004400054EA01021DD0C5F30A570246C5F313034F
:10045000C1F31300C1F30A5640F4801543F480132E
:10046000A7EB0608101BD64608F2FD3873EB050013
:1004700002D308F1010801E092185B41B8F1000FC6
:1004800003DA00200146BDE8F08D00204FF4801112
:10049000064684460EE0171B73EB050705D3121BB7
:1004A00063EB050306434CEA010C49084FEA3000B0
:1004B00092185B4150EA0107EDD152EA030012D0D5
:1004C00082EA040083EA0501084305D0101BAB4112
:1004D00006D20122002306E000224FF0004302E092
:1004E0006FF0010253101AEB06004CEB085110EBB1
:1004F0000A0041EB0B01BDE8F04D00F072B801F0CD
:10050000004330B421F0004150EA010206D00A0D48
:10051000A2F56072C1F31301002A02DC30BC002096
:100520007047440F44EAC104C100E01830BC00EB3E
:10053000C25000F01FB8202A04DB203A00FA02F172
:10054000002070479140C2F1200320FA03F31943C1
:1005500090407047202A04DB203A21FA02F0002163
:10056000704721FA02F3D040C2F1200291400843C3
:10057000194670470029A8BF7047401C490008BFB2
:1005800020F00100704710B4B0FA80FC00FA0CF0C3
:1005900050EA010404BF10BC704749B1CCF12004FB
:1005A00021FA04F411FA0CF118BF01212143084388
:1005B000A3EB0C01CB1D4FEA00614FEA102042BFB4
:1005C000002010BC704700EBC35010440029A4BFAA
:1005D00010BC7047401C490008BF20F0010010BC4F
:1005E000704710B5141E73F1000408DA401C41F185
:1005F000000192185B411A4301D120F0010010BDA7
:100600002DE9F04D92469B4611B1B1FA81F202E01C
:10061000B0FA80F220329046FFF78DFF04460F4675
:1006200040EA0A0041EA0B0153465A46084313D0F8
:10063000114653EA010019D0C8F140025046FFF7B5
:1006400089FF05460E46504659464246FFF773FF5E
:10065000084305D0012004E020463946BDE8F08D6E
:100660000020054346EAE0762C4337430A986305A9
:10067000E40AA0EB08000022FD0A44EA47540A30CD
:1006800002D500200146E9E7010510196941DDE9BD
:10069000084500196941BDE8F04DA2E7064C074D39
:1006A00006E0E06840F0010394E807009847103442
:1006B000AC42F6D3FFF7E8FD388C0000588C000000
:1006C00010B5002302B910BD01B110B90424147093
:1006D000F9E70C681CB9086000241470F3E70B6894
:1006E00005E0984202D105241470ECE71B691C69EF
:1006F000002CF6D118610461147000BFE3E700001C
:100700002DE9F84305460E46144600200090804629
:1007100000270CB9BDE8F8833048008840423049D2
:10072000084400F0030705F1140038442B490988F8
:10073000884202D903202070ECE722466946304601
:1007400001F0C0FB207810B905202070E2E727B146
:1007500022480088C01B2149088020480088C0F535
:100760005C701F49084400900098068000200099A2
:100770000861009845800020009988800099C88011
:1007800016480088C0F55C7015490844143000997B
:10079000C86000200099087210480088C0F55C709D
:1007A0000F49084414300D490988C1F55C710C4AA1
:1007B0001144401A1FFA80F808EB05001FFA80F870
:1007C00006480088A0EB0800044908802246054935
:1007D0000098FFF775FF00BF9CE700003C80FF1FFB
:1007E000A882FF1F3880FF1F1FB5012203210520AB
:1007F00002F064F902A800F039FD684600F03EFB03
:100800002A492B48FFF7F1FD00208DF80A008DF8EA
:1008100009008DF8080005208DF80C0002A800F0F2
:1008200089FC00200190019820F01F00801C01909D
:100830003121019861F310200190019820F070405F
:1008400000F180500190019820F0706000F18070FC
:100850000190019820F4700000F5801001900020B4
:100860008DF80000019820F080000190684600F0AB
:10087000B9F900BF202000F02DF90128FAD100229B
:100880001146042004F002FA012211460B2004F064
:10089000FDF9502001F02AF84FF4404002F046FBE9
:1008A00003F0E2FF052000F012FB1FBD1022110033
:1008B000777777072DE9F04104460F46264604482E
:1008C000006801683046884705462846BDE8F08143
:1008D0001C80FF1F10B5FF2003F03AFFFFF784FFD5
:1008E00000F068F806F0C6FF05F020FA02F0CFFE2F
:1008F000FF2003F075FF10BD1CB5002400200190FF
:100900000090694601A802F0E9FC019C002006E085
:1009100054F82010019A114444F82010401C022879
:10092000F6D30249019808601CBD00001C80FF1F1F
:1009300010B50848006840F400600649086000BF30
:100940000221012002F008FA0028F9D0022001F06B
:1009500023F810BD0880FF1F00200549098864297D
:1009600005D30120024909886439014A1180704782
:100970001880FF1F00200549098829B1012003497B
:100980000988491E014A1180704700001680FF1F28
:100990002DE9F04104460D461646054800683246EA
:1009A000294643682046984707463846BDE8F08107
:1009B0001C80FF1F30B58BB000243848006AC0F39C
:1009C000026137480068C8400521B0FBF1F53548A1
:1009D000007828B9002000F09BFAA02000F014FE57
:1009E0000AA800F041FB00208DF828008DF82900AE
:1009F0008DF82A0001224FF44041022002F05EF8F7
:100A00000AA800F0CDFA0121080400F0F1FF01A8C6
:100A100001F020FAB82007900320089000200590EC
:100A200010200290002003901F20ADF80400222027
:100A3000ADF8060001A801F027F9012001F0C0F887
:100A400000BF022001F0F6F801281AD1022001F0BF
:100A50008FF8012001F0EEF8012804D0042001F005
:100A6000E9F8012803D1052001F082F809E001F03E
:100A7000C9F800214FF4803000F0BAFF00200BB01D
:100A800030BD641CAC42DCD901F0BCF800214FF44D
:100A9000803000F0ADFF6FF00700F0E70040054048
:100AA0000080FF1F2044054000B585B0684602F075
:100AB0007DFA0020ADF800000220ADF802006A4681
:100AC000C10202F051F84FF48051022002F0F2F915
:100AD00005B000BD10B5044600BF24B144F0690064
:100AE000692800D104E04FF4B26106A000F06AFD6D
:100AF00000BF0C480078204008B1012010BD002044
:100B0000FCE700002E2E5C447269766572735C739C
:100B100072635C686333325F6C6C5F636C6B2E6313
:100B2000000000003C40054070B50446002500BFB1
:100B30000CB1012C00D104E040F2E6411FA000F00E
:100B400041FD00BF00BF2548008800F0010000B152
:100B500004E040F2E74119A000F034FD00BF64B9A1
:100B60001F48007800F00700052801D1C54322E0A6
:100B700001201B49091D08701DE01948DA30006882
:100B8000C0F3C01030B94FF48051082000F0A7F92D
:100B9000054605E04FF48051012000F0A0F905461C
:100BA0004DB900200E49091D08704FF480512020D6
:100BB00000F095F90546284670BD00002E2E5C44D5
:100BC0007269766572735C7372635C686333325FFB
:100BD0006C6C5F636C6B2E6300000000FE4305408D
:100BE000264005402DE9F041044614B96FF0020695
:100BF0001FE100BF2079C0F3C01018B12079C0F305
:100C0000C01000B104E040F2B9418BA000F0DAFC62
:100C100000BF00BF207900F01F00401C182805D835
:100C2000207900F01F00401C00B104E040F2BA41FE
:100C300081A000F0C7FC00BF00BF6068C0F30820BF
:100C4000401CB0F5F07F06D86068C0F30820401C57
:100C5000142800D304E040F2BB4177A000F0B2FCBE
:100C600000BF00BF0121606801EB1070102805D89B
:100C7000606801EB1070022800D304E040F2BC4130
:100C80006DA000F09FFC00BF2079C0F3C01008B930
:100C9000714901E071480168207900F01F00401C93
:100CA000B1FBF0F76068C0F30820401C00FB07F5BB
:100CB00000BF6B48874203D86A48874200D304E0EC
:100CC00040F2C1415CA000F07DFC00BF00BF66485F
:100CD000854203D84010854200D304E040F2C2416F
:100CE00055A000F06FFC00BF00BF0121606801EB60
:100CF0001070B5FBF0F05D49884209D801216068A9
:100D000001EB1070B5FBF0F05949884200D304E0C4
:100D100040F2C34148A000F055FC00BF00BF60682E
:100D2000C0F30360401C102806D86068C0F303605D
:100D3000401C022800D304E040F2C4413EA000F071
:100D400041FC00BF00BF6068C0F30350401C102886
:100D500006D86068C0F30350401C022800D304E0AA
:100D600040F2C54134A000F02DFC00BF00BF606818
:100D7000C0F30350401CB5FBF0F03C49884209D851
:100D80006068C0F30350401CB5FBF0F0384988425E
:100D900000D304E040F2C64127A000F013FC00BFDE
:100DA00000BF6068C0F30360401CB5FBF0F02F4942
:100DB000884209D86068C0F30360401CB5FBF0F0BE
:100DC0002B49884200D304E040F2C7411AA000F04A
:100DD000F9FB00BF00BF2078012801D0207800B9BE
:100DE00004E040F2C94114A000F0ECFB00BF00BFDA
:100DF0002048008800F0010000B104E040F2CA4140
:100E00000DA000F0DFFB00BF2079C1091A4800687F
:100E100061F3C7101849086060680860207820B93D
:100E20000120FFF781FE064603E00020FFF77CFE6D
:100E300006463046BDE8F0812E2E5C447269766528
:100E400072735C7372635C686333325F6C6C5F6394
:100E50006C6B2E630000000000366E010480FF1FE3
:100E600040787D0140420F0000389C1C00C2EB0B13
:100E7000C0E1E400FE43054000410540014600207A
:100E800009B9C01E22E000224A604A6822F08002AE
:100E90004A604A6822F01F024A6013234A6863F3DB
:100EA00010224A604A6822F0704202F180524A6081
:100EB0004A6822F0706202F180724A604A6822F445
:100EC000700202F580124A6001220A70704710B564
:100ED0000446204604F086F904F048FB10BDF8B53E
:100EE00005460C46002000906FF0070609E02846F2
:100EF000FFF7F0FD012801D1002605E00098401C15
:100F000000900098A042F2D900BF3046F8BD000022
:100F100070B50446002500BF0CB1012C00D104E0DF
:100F200040F2624114A000F04DFB00BF00BF1A4820
:100F3000008800F0010000B104E040F263410EA01F
:100F400000F040FB00BF6CB91448007800F00700C7
:100F5000042802D16FF0050508E001200E49223176
:100F6000087003E000200C4922310870A02000F036
:100F70004BFB284670BD00002E2E5C4472697665DE
:100F800072735C7372635C686333325F6C6C5F6353
:100F90006C6B2E6300000000FE43054026400540B8
:100FA00070B5044614B96FF0020548E000BF207820
:100FB000012801D0207800B904E040F2454121A089
:100FC00000F000FB00BF00BF607810B1607801281E
:100FD00000D104E040F246411AA000F0F3FA00BF4D
:100FE00000BFA07828B1A078012802D0A0780328FB
:100FF00000D104E040F2474112A000F0E3FA00BF44
:1010000000BF1848008800F0010000B104E04FF470
:1010100089610CA000F0D6FA00BF60781149233135
:101020000870A078091D0870207820B90120FFF70A
:101030006FFF054603E00020FFF76AFF05462846DC
:1010400070BD00002E2E5C447269766572735C730D
:1010500072635C686333325F6C6C5F636C6B2E63CE
:1010600000000000FE4305400146002009B9C01EF3
:1010700003E000220A704A708A70704770B5044617
:10108000002500BF0CB1012C00D104E040F2A931D1
:101090001EA000F097FA00BF00BF2448008800F0AF
:1010A000010000B104E040F2AA3118A000F08AFA71
:1010B00000BFFCB91E48007800F00700032802D1E9
:1010C0006FF0050520E01A48DA300068C0F3C01060
:1010D00058B91748001D007810B96FF0050513E0E6
:1010E000012013490C3108700EE0012010490C3129
:1010F000087009E000200E490C3108704FF480514F
:101100000820FFF7ECFE0546284670BD2E2E5C44F5
:101110007269766572735C7372635C686333325FA5
:101120006C6C5F636C6B2E6300000000FE43054037
:101130002640054070B5044614B96FF002057FE003
:1011400000BF2078012801D0207800B904E040F2E7
:1011500089313CA000F036FA00BF00BF607840B192
:101160006078102805D06078202802D06078302878
:1011700000D104E040F28A3132A000F023FA00BF2F
:1011800000BFA07810B1A078402800D104E040F260
:101190008B312CA000F016FA00BF00BFE078802849
:1011A00001D0E07800B904E04FF4637125A000F0AD
:1011B00009FA00BF00BF2079012817D02079022842
:1011C00014D02079032811D0207904280ED020795A
:1011D00005280BD02079062808D02079072805D0CB
:1011E0002079082802D02079092800D104E040F2B3
:1011F0008D3114A000F0E6F900BF00BF1948008847
:1012000000F0010000B104E040F28E310DA000F0CA
:10121000D9F900BF207914490870E0786178084353
:10122000A17808430F4912310870207820B90120B5
:10123000FFF724FF054603E00020FFF71FFF0546E8
:10124000284670BD2E2E5C447269766572735C739D
:1012500072635C686333325F6C6C5F636C6B2E63CC
:1012600000000000FE430540A2400540014600206A
:1012700009B9C01E08E001220A7000228A704A7073
:101280008022CA7005220A71704770B504460D4667
:10129000164632462946204600F07CF970BD70B5EE
:1012A00004460D46164632462946204600F072F99D
:1012B00070BD01207047000010B50548806828B156
:1012C00003498868804700200149886010BD0000FC
:1012D0002480FF1F38B505460C460020009004B955
:1012E00038BD22466946284600F0ECFD207800B162
:1012F000F6E70020009908720098C088009988805D
:101300000020207000BFEBE72DE9F04F2DED088B9A
:1013100089B08346894601200490801E039000BF57
:101320006D48834508D06D48834505D06C4883459A
:1013300002D06C48834500D104E040F29D116AA0C0
:1013400000F040F900BFD9F80040D9F80460002C43
:101350007CD0002EFCD0B000B4FBF0F0451EFF2D79
:1013600077D8C9F80850B000B4FBF0F100FB114089
:101370000590059830B99FED640A89ED040A0020B4
:10138000039066E000206A1C40EB000C042300215F
:10139000A2FB030E0CFB03E302FB0132A0FB06736E
:1013A00002FB063200FB01284FF480710022A7FBEC
:1013B00001C308FB013107FB021052084FEA340356
:1013C0001CEB0301504122460023CDE900100846E2
:1013D0000199FEF79BFF8021B0EB010ABAF17F0F64
:1013E00035D8C9F80CA0490000203A46A2FB01CE2E
:1013F00008FB01E107FB0018674680211AEB010298
:1014000040EB00030021A2FB040C03FB04C302FB1E
:101410000131CDE9060138464146FEF7D9FF41ECDE
:101420001A0BDDE90601FEF7D3FF53EC1A2BFEF78A
:10143000F7FFFFF764F800EE100AF7EE000A30EE4F
:10144000608A89ED048A0020039002E03EE00020DB
:1014500004900498D0BB04EB84004000B100B0FBC2
:10146000F1F0401D0A21B0FBF1F0451EFF2D2DD8F3
:10147000C9F8085000206B1C404104214FF0000CBB
:10148000A3FB012E00FB01E003FB0C016346A2FB62
:10149000067C01FB06C102FB031838464146FEF7F5
:1014A00097FF41EC1A0B2046FEF785FF53EC1A2BF1
:1014B000FEF7B6FFFFF723F800EE100AF7EE000A7A
:1014C00030EE608A89ED048A00200390039809B009
:1014D000BDEC088BBDE8F08F00D0014000D4014086
:1014E00000100240001402402E2E5C4472697665A2
:1014F00072735C7372635C686333325F6C6C5F75CC
:10150000736172742E6300000000000070B5054620
:101510000C460026667A36B1032E05D0802E0AD0FE
:10152000832E0DD108E000BF28784030207266720B
:10153000022060600AE000BF00202072606005E0C9
:1015400028782246122103F0AFFC00BF00BF70BD17
:1015500070B505460C460026667A012E06D0022E8E
:1015600005D0812E0AD0822E0CD108E000BF287849
:101570004030207266720220606009E000BF0020E7
:10158000606005E028782246122103F08DFC00BF40
:1015900000BF70BD70B503460C460020002100BF9F
:1015A00008E05D5C4540EDB2054E36F8155085EA21
:1015B0002020491CA142F4D3C543ADB2156070BDD3
:1015C0000081000000BFFEE708B50D49096AC1F3BC
:1015D00002630C490968D94042F210731944491E4C
:1015E000B1FBF3F206E0009200BF00994B1E00939E
:1015F0000029FAD1011EA0F10100F4D108BD0000BC
:10160000004005400080FF1F08B50C49096AC1F37E
:1016100002630B490968D9400A4B1944491EB1FBC2
:10162000F3F206E0009200BF00994B1E00930029E0
:10163000FAD1011EA0F10100F4D108BD004005401F
:101640000080FF1F8096980070B506460C46002566
:10165000657A307840302072657202206060812D9A
:1016600010D006DC012D09D0022D13D0032D31D16D
:1016700020E0822D14D0832D2CD121E0012003F015
:1016800001FC2DE0012003F0FDFB812D01D10020A4
:10169000606025E0022003F0F5FB03F095FA1FE0FF
:1016A000022003F0EFFB822D01D10020606003F0E7
:1016B0008BFA15E0042003F0E5FB03F085FA0FE058
:1016C000042003F0DFFB832D01D10020606003F0D4
:1016D0007BFA05E030782246122103F0E5FB00BFDB
:1016E00000BF70BD70B503460C46002100220025E6
:1016F0000020D978E278914201DD8E1A00E0561A76
:10170000F5B2012D05D1914201DD00201CE0012040
:101710001AE0FE2D05D1914201DA002014E00120EB
:1017200012E0FF2903D1FF2A01D001200CE0FF299C
:1017300003D0FF2A01D1002006E0FF2903D1FF2AB0
:1017400001D1FF2000E0002070BD2DE9F8430746DD
:101750000C460020009000250026804600906A4636
:1017600020213846FFF79BFD386A0099884200D156
:101770000125002000906A4620212046FFF78FFDBA
:10178000206A0099884200D10126012D04D1012E42
:1017900002D04FF0000811E0012D03D0012E01D13D
:1017A000B0460BE0012D04D0012E02D04FF000080E
:1017B00004E021463846FFF795FF80464046BDE8E5
:1017C000F88310B5002400F041FF012807D100F094
:1017D0002BFF012801D1012402E0002400E00024B5
:1017E000204610BD10B504462CB9034B31220349E5
:1017F000032001F045F810BD114B000085180000D2
:1018000010B504462CB9034B31220349012001F0E5
:1018100037F810BD114B00001D1800002DE9FC41E8
:101820000646002500200090019000240027042493
:10183000134800784030C0B28DF8000000BF05E0CA
:101840000F49681C095C0DF80010C5B2601EA84263
:10185000F6D8012E03D100200DF8040002E001208B
:101860000DF80400601CC4B204F0C8F907466B46CA
:1018700022460021384604F015FABDE8FC8100003C
:10188000D88B00002DE9FC41064600250020009081
:101890000190002400270424134800784030C0B28F
:1018A0008DF8000000BF05E00F49681C095C0DF8C9
:1018B0000010C5B2601EA842F6D8012E03D1002048
:1018C0000DF8040002E001200DF80400601CC4B211
:1018D00004F094F907466B4622460021384604F08E
:1018E000E1F9BDE8FC810000DC8B000070B5044626
:1018F000002500BF1D480068012800D104E04FF416
:1019000089711BA0FFF75EFE00BF00BFF02C00D85E
:1019100004E040F2131116A0FFF754FE00BF134875
:101920000830006820F0F00004F0F00108430F498F
:101930000831086010E06D1C1548006AC0F30261B0
:1019400014480068C84044F62061B0FBF1F0A8429A
:1019500002D26FF0070070BD04480830006800F044
:10196000F000A042E7D10020F5E7000000040140AC
:101970002E2E5C447269766572735C7372635C6868
:101980006333325F6C6C5F65666D2E630000000030
:10199000004005400080FF1F10B5044600BF3CB169
:1019A0004FF6FF7020434FF6FF71884200D104E0EC
:1019B00040F20A2104A0FFF705FE00BF0B48806D2E
:1019C00020430A49886510BD2E2E5C4472697665F5
:1019D00072735C7372635C686333325F6C6C5F69F3
:1019E0006E74657272757074732E6300001005401A
:1019F00070B504460D4600BF2CB117482043164968
:101A0000884200D103E0712114A0FFF7DBFD00BF85
:101A100000BF0DB1012D00D103E072210FA0FFF72F
:101A2000D1FD00BF00BF1548006900F0010000B102
:101A300003E0732109A0FFF7C5FD00BF012D05D10B
:101A40000E480068A0430D49086004E00B48006898
:101A500020430A49086070BD11C5F38F2E2E5C44E7
:101A60007269766572735C7372635C686333325F4C
:101A70006C6C5F6663672E630000000000800440AA
:101A800070B504460D4600BF2CB1114820431049E3
:101A9000884200D103E084210EA0FFF793FD00BF30
:101AA00000BF0DB1012D00D103E0852109A0FFF792
:101AB00089FD00BF012D05D10E484068A0430D49A6
:101AC000486004E00B48406820430A49486070BD04
:101AD00079FD0F0F2E2E5C447269766572735C730C
:101AE00072635C686333325F6C6C5F6663672E633E
:101AF000000000000080044070B504460D4600BFA1
:101B00002CB1114820431049884200D103E09621AE
:101B10000EA0FFF757FD00BF00BF0DB1012D00D192
:101B200003E0972109A0FFF74DFD00BF012D05D16E
:101B30000E488068A0430D49886004E00B48806827
:101B400020430A49886070BDFF8707002E2E5C4441
:101B50007269766572735C7372635C686333325F5B
:101B60006C6C5F6663672E630000000000800440B9
:101B700010B5044600BF24B144F00700072800D187
:101B800004E04FF48B7105A0FFF71CFD00BF0B486C
:101B9000006820430949086010BD00002E2E5C44F7
:101BA0007269766572735C7372635C686333325F0B
:101BB0006C6C5F66636D2E6300000000208404403F
:101BC00010B5044600BF0CB1012C00D104E04FF465
:101BD000B87103A0FFF7F6FC00BF0948046010BD10
:101BE0002E2E5C447269766572735C7372635C68F6
:101BF0006333325F6C6C5F66636D2E6300000000C0
:101C00008081904200200A49086007200849143169
:101C10000860002006490C390860091D0860044965
:101C2000091D0860091D0860091D08607047000053
:101C30000C84044010B5044600BF24B144F00700F2
:101C4000072800D104E04FF4837106A0FFF7BAFC27
:101C500000BF0C480068204008B1012010BD0020E2
:101C6000FCE700002E2E5C447269766572735C732B
:101C700072635C686333325F6C6C5F66636D2E63A6
:101C8000000000001C84044070B5044600250CB917
:101C9000ED1ECBE000BF6068B8B16068102814D0BA
:101CA0006068202811D0606830280ED06068402815
:101CB0000BD06068502808D06068602805D0606844
:101CC000702802D06068802800D103E0B62158A0B7
:101CD000FFF778FC00BF00BFA06840B1A0680128F2
:101CE00005D0A068022802D0A068032800D103E034
:101CF000B7214FA0FFF766FC00BF00BFE06818B136
:101D0000E068B0F5004F00D103E0B82148A0FFF72C
:101D100059FC00BF00BF206938B12069B0F5805F71
:101D200003D02069B0F5005F00D103E0B92140A0E5
:101D3000FFF748FC00BF00BF606958B16069B0F5AB
:101D4000807F07D06069B0F5007F03D06069B0F58F
:101D5000407F00D103E0BA2135A0FFF733FC00BF7C
:101D600000BFA069D0B1A069802817D0A0698828D9
:101D700014D0A069902811D0A06998280ED0A0692D
:101D8000A0280BD0A069A82808D0A069B02805D049
:101D9000A069B82802D0A069C02800D103E0BB2107
:101DA00023A0FFF70FFC00BF00BFE06940B1E0696E
:101DB000012805D0E069022802D0E069032800D19B
:101DC00003E0BC211AA0FFF7FDFB00BF00BF206AA3
:101DD00010B1206A102800D103E0BD2114A0FFF744
:101DE000F1FB00BF20881A4908606088091D08605F
:101DF000D4E901010843164910310860D4E9030110
:101E0000084361690843A1690843E169084310492F
:101E100014310860081D006820F0100094F82010AC
:101E200001F0100108430A4918310860284670BDC6
:101E30002E2E5C447269766572735C7372635C68A3
:101E40006333325F6C6C5F66636D2E63000000006D
:101E5000008404400146002009B9C01E0CE00022A5
:101E60000A804A804A608A60CA600A614A618022A8
:101E70008A610022CA610A627047000010B5002022
:101E80000E49087000F0FAFA00200C49487000F082
:101E9000EBFC0023FF221946184600F0F1FC08482D
:101EA0000649C1F8F00014210448F430FEF778FA2E
:101EB000FF2224210248FEF76CFA10BD1888FF1F8C
:101EC0002089FF1F10B50346002002B910BD11B9CB
:101ED00004241470FAE700BF084C206800BF07E034
:101EE00004889C4203D1002414700860EEE7006966
:101EF0000028F5D10224147000BFE7E73880FF1FE7
:101F000038B504460020009002F0A2FB012808D159
:101F1000214AD2F8D810D2F8D4006A46FFF7B5F9B2
:101F200018E01D484078012814D11B4AD2F8D81077
:101F3000D2F8D4006A46FFF7A8F91748D0F8D400C1
:101F40001549D1F8D81008441349C1F8D40000202D
:101F5000C1F8D8001048D0F8DC000099884219D1A7
:101F600002F076FB012813D10B49487001F1F4000F
:101F700001F06EFA012803D000200749487007E0FD
:101F80000548D0F8F40018B10349D1F8F4008047AF
:101F9000012038BD0020FCE71888FF1F2DE9FC5FF9
:101FA00006464FF0000A00200190002404F02AFFAA
:101FB000834601F065F9BBFBF0F50027A046002041
:101FC00000908146BE484078012802D00020BDE83C
:101FD000FC9F00203070BB48007820B101281DD044
:101FE000022870D152E100F098FAB7490870002039
:101FF000B6490860B6490860B64908600120B6498C
:102000000870B34AB149B048007801F03BF90128A3
:1020100003D100BFAB49087000BF4CE1AA4800786B
:1020200001F0BAF90746AF424ED847E0A74800682A
:102030004068A64909680968A0EB010AA349096834
:102040000868514601F056F904469D48D0F8F8005A
:10205000E8B1A1469D4800680068009013E09848E8
:102060000121D0F8F820009890479B490870A9F109
:10207000010908460078012800D007E001F0DCF8EB
:10208000009908440090B9F1000FE8D102E0002067
:102090009149087090480078012800D012E08D48DE
:1020A000006820448B49086089480068401E8849C0
:1020B00008608648006808308449086084480068E1
:1020C0000028B3D18EE0F0E082E06A4681480168E2
:1020D0007D48007801F0D6F9012803D000207E4920
:1020E00008707EE0794800680068009988420CD842
:1020F0007648006840680099884206D973480068AD
:1021000040680099A0EB010A03E0002072490870C2
:1021100067E06E480068006800906E480068B0FB99
:10212000F5F105FB1100A5EB00085146009801F000
:10213000E1F80446AC4204D92C4644450FD9444644
:102140000DE044450AD862480068401E60490860B6
:102150005E48006808305D49086000E04446584821
:10216000D0F8F800C8B1A14613E055480121D0F8D5
:10217000F8200098904758490870A9F101090846CD
:102180000078012800D007E001F056F800990844D3
:102190000090B9F1000FE8D102E000204E4908702C
:1021A0004D480078012800D01BE04A4800682044D0
:1021B0004849086008460068B0FBF5F105FB1100CE
:1021C00030B944480068B84202D20020307008E0BC
:1021D00040480068B84204D23D48006800287FF4B7
:1021E00074AF00BF3078A8B93B480078012811D1FE
:1021F00038480068B8420DD2042002F0F3FC3048A1
:10220000D0F8EC00F0B32E49C878D1F8EC2033496F
:1022100090473AE030480078012812D12D480068F4
:10222000B8420ED100BF00BF01202D49487000BF49
:1022300000BF0020087000BF00BF0120887000BFF1
:102240000DE000BF00BF00202549487000BF00BF5F
:10225000087000BF00BF0120887000BF00BF00BF32
:1022600001AA20211E48FFF71AF800BF1C49019857
:10227000086200BF00BF00201649086000BF0220AE
:10228000104900E001E0087000BF14E000200F4991
:1022900008600F4908600F4908600120307000BFD6
:1022A00000200849087000BF05E000BF0020054974
:1022B000087000BF00BF00BF0748007887E6000035
:1022C0001888FF1F5180FF1F5380FF1F5480FF1F7E
:1022D0005880FF1F5C80FF1F5280FF1FAD4B000026
:1022E0002089FF1FF8B50746002500200090002434
:1022F000002660484078012801D00020F8BD012563
:1023000046E06A4620215C48FEF7C9FF5A48006A49
:102310000099884201D1012000E00020012801D06D
:1023200000253AE05448407801282FD1524880785F
:1023300001282BD14F48D0F8FC0060B14D4A121D46
:1023400002EBC411121FD2F8CC00D2F8FC3080226C
:102350009847054600E00025012D15D14548D0F8E5
:10236000D00080384349C1F8D0000846D0F8E000DA
:102370008038C1F8E0000846D0F8CC008030C1F8C1
:10238000CC00601CC4B203E0002506E0002504E098
:102390003848D0F8E0008028B3D200BF3548D0F8E4
:1023A000E00000284DD0012D4BD1324890F8E000DC
:1023B00000F00706F043401C00F007062D49D1F855
:1023C000E01001EBC4122B49091D5018FF223146C1
:1023D000FDF7DFFF2748D0F8E00030442549C1F879
:1023E000E0000846D0F8FC0078B18C46DCF8E0202C
:1023F00001F1040C0CEBC411DFF878C0DCF8CC0060
:10240000DCF8FC309847054600E00025012D18D186
:102410001848D0F8D0001749D1F8E010891B401AAD
:102420001449C1F8D0000846D0F8CC00D1F8E0102B
:1024300008441049C1F8CC000020C1F8E000601C3D
:10244000C4B2012D12D100BF01200B49087000BF9A
:1024500000BF6A4620210848FEF721FF00BF064959
:102460000098086200BF00BF012047E700F0B2F803
:10247000002043E71888FF1F2089FF1F1CB500209C
:10248000019000900024694601A800F027FF04464F
:10249000012C05D1DDE90002811A1046FDF780FF0D
:1024A0001CBD1CB50020019000900024694601A8C5
:1024B00000F014FF0446012C05D1DDE90002811A69
:1024C0001046FDF76DFF1CBD014890F8E400704711
:1024D0001888FF1F10B596B00020159014900024A6
:1024E0000190009014AA15A900F0AAFE6A4601A95D
:1024F000012000F0A5FE24220BA81599FDF737FF57
:10250000242202A80199FDF732FF02A90BA8FFF7C8
:102510001CF90446204616B010BD30B597B0002017
:1025200016901590002514901390002415AA16A952
:1025300000F086FE13AA14A9012000F081FE2422D7
:102540000AA81699FDF713FF242201A81499FDF794
:102550000EFF01A90AA8FFF7F8F804460CB90125F7
:1025600004E0012C01D1002500E00025284617B029
:1025700030BD0000014890F8E50070471888FF1F43
:1025800010B500201149087008464078012804D190
:10259000FFF787FF00200D494870002000F06AF91E
:1025A0000023FF221946184600F076F9084807492B
:1025B000C1F8F00014210548F430FDF7F1FEFF22C8
:1025C00024210348FDF7E5FE10BD00001888FF1F19
:1025D0002089FF1F10B50020114908700846407877
:1025E000012804D1FFF75DFF00200D49487000204D
:1025F00000F040F90023FF221946184600F04CF97C
:1026000008480749C1F8F00014210548F430FDF7E7
:10261000C7FEFF2224210348FDF7BBFE10BD0000CA
:102620001888FF1F2089FF1F07480078012808D15C
:1026300005484078012804D103488078012800D15A
:1026400070470020FCE700002089FF1F08B500202C
:10265000009002F0C3F96A4620210648FEF71FFEEB
:102660000448006A0099884201D1012008BD002079
:10267000FCE700002089FF1F38B5002400200090EF
:10268000FFF778FF0446012C06D0022C0CD0032C57
:1026900012D0042C45D117E0002000906846FFF7C7
:1026A0007DFC334988703DE0012000906846FFF7CB
:1026B00019FE2F49887035E0012000906846FFF729
:1026C0001FFC2B4988702DE02A480078012800D192
:1026D00000E00020012808D100BFFF202549087034
:1026E00000BF012002F07EFA1AE02248007802289A
:1026F00001D1012000E00020012811D100BFFF20FE
:102700001C49087000BF00BF00201B49087000BFB3
:10271000FFF736FF0023FF221946184600F0B0F8F5
:1027200000E000BF00BF9DF8000001281FD1104845
:10273000D0F8E80048B144B10D4A9078D2F8E810DA
:10274000884700200A49C1F8E80009488078012834
:1027500007D0012C03D0022C01D0032C01D1FFF7AC
:102760000FFF0023FF221946184600F089F838BDF4
:102770001888FF1F5080FF1F5180FF1F2DE9F04177
:1027800080460D461646F7B2012400BFFFF79CFEB7
:10279000012800D000243946284602F0FDFA01281D
:1027A00000D00024012C1FD11348407818B101F04B
:1027B0004FFF01280FD101F04BFF012804D13A4609
:1027C00029464046FDF7D3FD0023FF22194618464F
:1027D00000F056F808E00023FF221946022000F01E
:1027E0004FF8012004498870012C01D0FFF7C8FE82
:1027F0002046BDE8F08100001888FF1F044AC2F897
:10280000CC00C2F8D010C2F8D400C2F8D81070477B
:102810001888FF1FF8B505460C46002600200090DA
:10282000112C01D9112600E026460A49D1F8F010F2
:10283000081D32462946FDF79AFD00BF6A46202151
:102840000548FEF72CFD00BF03490098086200BF51
:1028500000BFF8BD1888FF1F2089FF1F0149C1F87C
:10286000DC0070471888FF1F014981F8E4007047B9
:102870001888FF1F014981F8E40070471888FF1F7E
:1028800010B5044C84F8E500E270C4F8EC30C4F8EC
:10289000E81010BD1888FF1F10B5044C84F8E5003F
:1028A000E270C4F8EC30C4F8E81010BD1888FF1FBF
:1028B0002DE9F04389B000250026002008900790FC
:1028C00006900024002705900490804681460390DE
:1028D0000290019000BF06AA20212E48FEF7DFFCDF
:1028E00000BF2C490698086200BF00BFFFF715FE25
:1028F0000646FFF7EFFD074607AA08A9304600F095
:102900009FFC0546012D40D1224C01AA02A903A833
:1029100000F030FD04AA05A9384600F091FC01281A
:1029200024D1DDF8148098F80300401CE070E078B2
:10293000FF2801D10020E0700299089800EB0109FE
:1029400000BF1449D9F80000C8610198886100BF30
:102950000020069000BF06AA20210E48FEF79FFC2B
:1029600000BF0C490698086200BF00BF0A48D0F8B3
:10297000FC0048B144B1084824222146D0F8FC307C
:1029800008989847054600E00025284609B0BDE8AC
:10299000F08300002089FF1F1888FF1F10B500F08A
:1029A000EBFF00F01BFE10BD70B506460D46092E6C
:1029B0001AD006DC012E0BD0022E0BD0032E27D10D
:1029C0000DE00B2E15D00D2E18D00E2E20D11AE0B2
:1029D0002C461EE0284600F047F8044619E0284639
:1029E00000F04BF8044614E0284600F05FF8044677
:1029F0000FE0284600F010F804460AE0284600F0F0
:102A000021F8044605E0284600F023F8044600E0DB
:102A100000BF00BF204670BD70B50446204600F0E0
:102A200045F80546204600F01FF8684070BD70B5B7
:102A30000446204600F031F80546204600F024F810
:102A4000684070BD10B504462046FFF7F0FF6040B7
:102A500010BD70B504462046FFF7E9FF0546204645
:102A600000F002F8684070BD0146480000F4807232
:102A700012B1C0B280F01B00704710B5044620466A
:102A8000FFF7F2FF604010BD70B504462046FFF727
:102A9000EBFF0546FFF7E8FF70BD70B50446204622
:102AA000FFF7F2FF0546FFF7DFFF70BD10B50446E4
:102AB0002046FFF7F2FF604010BD00002DE9F04115
:102AC00004460D46904600BF4CB1012C07D0022CA5
:102AD00005D0032C03D0042C01D0052C00D104E038
:102AE0004FF4207117A0FEF76DFD00BF00BF15B1B8
:102AF000A8B200B104E040F2812112A0FEF762FD0D
:102B000000BF002718E005F0010080B1154800EB78
:102B1000841000EB8706B8F1010F04D1308840F42F
:102B20000040308003E03088C0F30E0030806D102C
:102B300005B903E0781CC7B2102FE4D300BFBDE88D
:102B4000F08100002E2E5C447269766572735C73AE
:102B500072635C686333325F6C6C5F6770696F2EA1
:102B600063000000003C05402DE9F05F05460E467D
:102B700014464FF0000B14B96FF0020BD7E000BF02
:102B80006C48008800F0010000B103E0FE216AA05B
:102B9000FEF718FD00BF00BF4DB1012D07D0022D7B
:102BA00005D0032D03D0042D01D0052D00D103E065
:102BB000FF2161A0FEF706FD00BF00BF16B1B0B255
:102BC00000B104E04FF480715BA0FEF7FBFC00BF96
:102BD00000BF208810B12088012800D104E040F215
:102BE000011155A0FEF7EEFC00BF00BF608810B1D8
:102BF0006088022800D104E04FF481714EA0FEF7F6
:102C0000E1FC00BF00BFA08810B1A088042800D15B
:102C100004E040F2031148A0FEF7D4FC00BF00BF5F
:102C2000E08828B1E088102802D0E088202800D170
:102C300004E04FF4827140A0FEF7C4FC00BF00BF67
:102C4000208918B12089B0F5804F00D104E040F20E
:102C5000051139A0FEF7B6FC00BF00BF608910B1B6
:102C60006089402800D104E04FF4837132A0FEF760
:102C7000A9FC00BF00BFA08918B1A089B0F5007FF2
:102C800000D104E040F207112BA0FEF79BFC00BF2F
:102C900000BFE08918B1E089B0F5805F00D104E0A1
:102CA0004FF4847124A0FEF78DFC00BF00BF208A82
:102CB00018B1208AB0F5004F00D104E040F20911AC
:102CC0001DA0FEF77FFC00BF00272DE006F00100ED
:102CD00028B3208861880843A1880843E188084315
:102CE00061890843A1890843E1890843218940EAB1
:102CF000010A45F27728208A40EA0A0A48F4004887
:102D00000C48001D00EB851000EB8709B9F80000A6
:102D100020EA08000AEA08010843A9F80000761032
:102D200006B903E0781CC7B2102FCFD300BF5846B6
:102D3000BDE8F09FFC3B05402E2E5C447269766531
:102D400072735C7372635C686333325F6C6C5F6771
:102D500070696F2E6300000070B504460D4600BF19
:102D60004CB1012C07D0022C05D0032C03D0042C2D
:102D700001D0052C00D104E040F2FD110CA0FEF7BB
:102D800021FC00BF00BF15B1A8B200B104E04FF4B0
:102D9000FF7107A0FEF716FC00BF0D4901EB041000
:102DA000B0F80008284008B1012070BD0020FCE701
:102DB0002E2E5C447269766572735C7372635C6814
:102DC0006333325F6C6C5F6770696F2E6300000065
:102DD000003005402DE9F04104460D46164600BF7F
:102DE0004CB1012C07D0022C05D0032C03D0042CAD
:102DF00001D0052C00D104E040F27B1124A0FEF7A5
:102E0000E1FB00BF00BF15B1A8B200B104E04FF470
:102E1000BE711FA0FEF7D6FB00BF00BF0F2E03D967
:102E2000202E02D33B2E00D804E040F27D1118A0E2
:102E3000FEF7C8FB00BF00BF1D48008800F001007E
:102E400000B104E04FF4BF7111A0FEF7BBFB00BF5F
:102E5000002717E005F0010078B11548801D00EB50
:102E6000841000EB8708B8F800004FF6C0710840E6
:102E700006F03F010843A8F800006D1005B903E013
:102E8000781CC7B2102FE5D300BFBDE8F081000069
:102E90002E2E5C447269766572735C7372635C6833
:102EA0006333325F6C6C5F6770696F2E6300000084
:102EB000FC3B054070B504460D4600BF4CB1012CEB
:102EC00007D0022C05D0032C03D0042C01D0052CF4
:102ED00000D104E040F237210BA0FEF773FB00BFE6
:102EE00000BF15B1A8B200B104E04FF40E7106A006
:102EF000FEF768FB00BF0C48102101FB0406308878
:102F00002843308070BD00002E2E5C4472697665C7
:102F100072735C7372635C686333325F6C6C5F679F
:102F200070696F2E630000000838054010B5044634
:102F300000BF44B1B4F5804F05D0B4F5004F02D0C6
:102F4000B4F5404F00D104E040F2D9110EA0FEF7D5
:102F500039FB00BF00BF1448008800F0010000B139
:102F600004E04FF4ED7108A0FEF72CFB00BF0E4803
:102F7000001F0088C0F30D0004F4404108430A49D3
:102F8000091F088010BD00002E2E5C447269766512
:102F900072735C7372635C686333325F6C6C5F671F
:102FA00070696F2E63000000FC3B05400146002065
:102FB00009B9C01E09E000220A804A80CA800A823C
:102FC0000A814A818A81CA818A807047F8B506469B
:102FD0000C4615460020009005B9F8BD14B9042030
:102FE0002870FAE72A4669463046FEF76BFF2878D4
:102FF00000B1F2E70098007A012815D10098808886
:103000000099C988884208DD00984088009989881D
:10301000401A0099C988084404E00098C0880099C3
:103020008988401A208009E00098007A022803D19C
:1030300000984088208001E0002020800020287037
:1030400000BFCAE7F8B506460C46154600200090BA
:1030500005B9F8BD14B904202870FAE72A46694674
:103060003046FEF72FFF287800B1F2E70098007A8B
:10307000012815D1009880880099C988884205DD0B
:10308000009880880099C988401A07E00098408815
:103090000099898808440099C988401A208008E06E
:1030A0000098007A18B900984088208001E000203C
:1030B00020800020287000BFCBE7F0B504461546FD
:1030C000002600220023082C09D308780127B7EB3B
:1030D000201F01D1012000E00020012801D00020A4
:1030E000F0BD48780F7807F00F0740EA07224AB989
:1030F000002305E01202981C085C0243581CC3B26E
:10310000042BF7DB082A01D2002600E00126012E5D
:1031100000D12A603046E3E730B503460C4600256F
:103120000021012B07D92078001108B9012000E007
:103130000020012801D0002030BD082B0CD82078B9
:1031400000F00F01072907D831B1581E884201D37A
:10315000012000E000200546012D00D11160284625
:10316000EAE70000014609200870014870470000A6
:10317000F08B000001488088704700006880FF1FC6
:103180000148C088704700006880FF1F1CB541F6E9
:10319000FF740020019000906A4601A900F088F8B1
:1031A000012815D111E001980088C0F30C0020B966
:1031B00001988088C0F30C0008B100201CBD009865
:1031C000401E009001980830019000980028EAD134
:1031D0006A4601A9012000F06BF8012815D111E021
:1031E00001980088C0F30C0020B901988088C0F3D2
:1031F0000C0008B10020E1E70098401E0090019803
:103200000830019000980028EAD10120D6E72DE986
:10321000F04105460C4600260027B04600F00CF8A9
:1032200000FB04F821462846FDF744FB074607B992
:1032300001263046BDE8F0814FF400507047000091
:1032400030B50346002053B90B4C24680C600A4C7F
:103250006468094D2D68641B146001200BE0012B8C
:1032600009D1064C24680C60044C6468034D2D6839
:10327000641B1460012030BD08830000148300002B
:103280001920704710B5034600202BB9064C0C607E
:1032900001241460012006E0012B04D1034C0C60D2
:1032A00001241460012010BD088300001483000075
:1032B00010B5034600202BB9064C0C6001241460A5
:1032C000012006E0012B04D1034C0C6001241460A2
:1032D000012010BD0883000014830000024604484A
:1032E00000681060024840680860012070470000D4
:1032F0000083000030B50346002041F6FF74002231
:10330000C3F30C02B1F5005F07D80A44B2F5005FC1
:1033100001D801200DE002200BE0480BC1F30C05A1
:1033200005B1401C2AB15518C5F30C05954200D0D3
:10333000401C30BD30B50346002041F6FF7400222A
:10334000C3F30C02B1F5005F07D80A44B2F5005F81
:1033500001D801200DE002200BE0480BC1F30C0561
:1033600005B1401C2AB15518C5F30C05954200D093
:10337000401C30BD70B504460D46164600F063F89B
:10338000207000F007F8286000F002F8306070BD8F
:1033900004207047042070472DE9FC4106460025B3
:1033A000002001900090002700246A4601A93046C1
:1033B000FFF77EFF012815D100BF10E0019800EB58
:1033C000C4004068019951F83410471A019901EB83
:1033D000C40148683946FFF7ADFF0544641C0098F6
:1033E0008442EBD32846BDE8FC812DE9FC4106462A
:1033F0000025002001900090002700246A4601A9C2
:103400003046FFF755FF012815D100BF10E00198A5
:1034100000EBC4004068019951F83410471A019933
:1034200001EBC40148683946FFF784FF0544641C7A
:1034300000988442EBD32846BDE8FC8110B5FDF727
:103440005BFA012010BD0020704703460120704741
:103450000146002051B1064A0A60064A4A60064AFF
:103460008A60064ACA60064A0A6101207047000065
:103470003D3400000F3200001D3500004B340000C9
:10348000FF0300002DE9FE4F82460E4690464FF0A6
:10349000000900200290019083460024002741F695
:1034A000FF700090002501AA02A95046FFF700FF17
:1034B00001282FD15046FFF798FF83465E4527D25B
:1034C00000BF21E0029830F83400C0F30C0505B1CC
:1034D0007F1C029850F83400451B09E0B74204D124
:1034E000C8F800504FF0010908E005F500557F1CB1
:1034F000029800EBC4004068A842EFD800BFB9F1C1
:10350000010F00D103E0641C01988442DAD301E08A
:103510004FF000094846BDE8FE8F00002DE9FC474A
:103520008046894614464FF0000A082729A103C99E
:10353000CDE9000100260025781E204000283ED05D
:10354000BC4227D9781E2040261AB2B249464046CE
:10355000FDF71EFA10B94FF0010A01E04FF0000A22
:10356000BAF1010F33D1002506E0701919F80000F7
:103570000DF80500681CC5B2781E2040A842F4D89A
:1035800008EB060008226946FDF702FAF8B94FF089
:10359000010A1CE0002506E0701919F800000DF87A
:1035A0000500681CC5B2A542F6D308EB0600082248
:1035B0006946FDF7EDF950B94FF0010A07E0A2B2F4
:1035C00049464046FDF7E4F908B94FF0010A504674
:1035D000BDE8FC87FFFFFFFFFFFFFFFF1FB50020D7
:1035E00000900190029003900024114840680190DF
:1035F0000F48007C00900098C8B1019801F06AF86B
:10360000012814D100BF06E009480830015D02A876
:103610000155601CC4B20098A042F5D802AADDE9A9
:10362000001000F021F8012801D000BFFEE71FBD07
:103630009482FF1F10B500F033F810BD2DE9FE4352
:103640000746884614461D4600266A4641463846C7
:1036500000F034F80646012E03D10098206001984E
:1036600028603046BDE8FE832DE9F04104460D4652
:103670001646002732462946204600F017F907462D
:103680003846BDE8F08110B500F046F910BD10B520
:1036900000F07EF810BD10B500F0D8F810BD0000A5
:1036A00010B50548006828B103480068804700202D
:1036B0000149086010BD00003480FF1F2DE9F04172
:1036C00086B004460D4616460027002005904FF0B0
:1036D0000C0804AA05A97420FFF778FC9DF81000D7
:1036E00078BBBDF814000C282BD904A805AB01AA9F
:1036F0000C210090742001F005F99DF8100020B90C
:10370000BDF814000C2800D10127012F19D104A8FD
:10371000A1B205AB2A460090742001F0F3F89DF8A1
:10372000100070B9BDF81400A0420AD10298A0425E
:1037300007D800BF01A807C886E807000349039817
:103740000860384606B0BDE8F08100003480FF1FF5
:1037500001484068704700006C80000001488068A4
:10376000704700006C8000000148C068704700008E
:103770006C80000001460020044A92688A4203D00F
:10378000024A52688A4200D1012070476C800000D2
:1037900070B586B000240A261422254901A8FCF73A
:1037A000E6FD002523480078092810D022480DF1B5
:1037B0000D0203A9836A02A89847012807D102983D
:1037C000FFF7D8FF012802D100208DF804001FE088
:1037D0001A4810F834001749097888420CD1174864
:1037E00000EBC400406838B1144800EBC400114934
:1037F000426801A890470546062D08D025B100BFB4
:1038000000200C49087000BF601CC4B200E0002416
:103810000A2CDDDB00BF01208DF8040000208DF8AC
:103820000C00029000BF02F025FD06B070BD000044
:10383000EC8000004080FF1F6C8000009C80000036
:1038400001490860704700003080FF1F144840881D
:1038500020B113484088401E114948801048808894
:1038600020B10F488088401E0D4988800D4840884F
:1038700020B10C484088401E0A4948800948808889
:1038800020B108488088401E0649888006480068A4
:1038900020B105480068401E0349086070470000D9
:1038A0001886FF1FC086FF1F4880FF1FF0B595B028
:1038B00005460C461646002014900827082C01D90E
:1038C00015B0F0BD13AA14A97220FFF7BBFB9DF839
:1038D0004C00F0B904F10800BDF85010884218D827
:1038E0000295019413AB082201A9722004F04DF84F
:1038F0009DF84C0008B10020E2E7019882B213ABBA
:103900003146722004F041F89DF84C0008B10020C7
:10391000D6E70120D4E7000008B5164801F07CF88E
:103920006A4652219620FCF7EBFE9DF8000008B194
:1039300000BFFEE76A4654213220FCF7E1FE9DF805
:10394000000008B100BFFEE76A4672214FF496708E
:10395000FCF7D6FE9DF8000008B100BFFEE76A46FE
:1039600074216420FCF7CCFE9DF8000008B100BF74
:10397000FEE708BD9D29000010B5024803F0C8FF0E
:1039800010BD00009482FF1F2DE9F04704460F464A
:1039900015461E46DDF820A04FF000086FF0020922
:1039A0000D480068A04202D00020BDE8F087224602
:1039B0003946284603F0B0FC814607488660B9F1D5
:1039C000000F04D1FDF778FC4FF0010801E04FF043
:1039D00000084046E9E700002480FF1F70B5044658
:1039E0000D46ACB3204600F03BF8B4F902000028C5
:1039F00007DB00F01F0201219140164A430942F8FB
:103A0000231000BFB4F902002946002804DB0A078E
:103A1000130E114A135406E00A07160E0F4A00F05F
:103A20000F031B1FD65400BFB4F9020000280DDBA2
:103A300000BF00BF00F01F02012191404209920027
:103A400002F1E022C2F8001100BF00BF00BF00BFBA
:103A500070BD000080E200E000E400E018ED00E04E
:103A600070B5044600260CB9F61E4BE000BF208856
:103A7000B0F5007F00DA03E0CB2123A0FDF7A2FD23
:103A800000BF2088400900EB4000202101EB4000EE
:103A9000B4F9021088420AD82088400900EB40009F
:103AA000252101EB4000B4F90210884206D2B4F996
:103AB0000200202802D36FF0020623E060881B4931
:103AC000042212FB00152868C0F3080040F2FF1121
:103AD000884208D120882860B4F90210144A60682E
:103AE00042F821000EE020882968C1F308018842CD
:103AF00006D1B4F902100E4A606842F8210001E0D4
:103B00006FF00106304670BD2E2E5C4472697665FA
:103B100072735C7372635C686333325F6C6C5F6991
:103B20006E74657272757074732E63005C1005405C
:103B30008880FF1F10B5034908688047BFF34F8F87
:103B400010BD00008880FF1F10B5034948688047FA
:103B5000BFF34F8F10BD00008880FF1F10B50349D1
:103B600088688047BFF34F8F10BD00008880FF1F1B
:103B700010B50349C8688047BFF34F8F10BD0000E0
:103B80008880FF1F10B5034908698047BFF34F8F36
:103B900010BD00008880FF1F10B5034948698047A9
:103BA000BFF34F8F10BD00008880FF1F10B5034981
:103BB00088698047BFF34F8F10BD00008880FF1FCA
:103BC00010B50349C8698047BFF34F8F10BD00008F
:103BD0008880FF1F10B50349086A8047BFF34F8FE5
:103BE00010BD00008880FF1F10B50349486A804758
:103BF000BFF34F8F10BD00008880FF1F10B5034931
:103C0000886A8047BFF34F8F10BD00008880FF1F78
:103C100010B50349C86A8047BFF34F8F10BD00003D
:103C20008880FF1F10B50349086B8047BFF34F8F93
:103C300010BD00008880FF1F10B50349486B804706
:103C4000BFF34F8F10BD00008880FF1F10B50349E0
:103C5000886B8047BFF34F8F10BD00008880FF1F27
:103C600010B50349C86B8047BFF34F8F10BD0000EC
:103C70008880FF1F10B50349086C8047BFF34F8F42
:103C800010BD00008880FF1F10B50349486C8047B5
:103C9000BFF34F8F10BD00008880FF1F10B5034990
:103CA000886C8047BFF34F8F10BD00008880FF1FD6
:103CB00010B50349C86C8047BFF34F8F10BD00009B
:103CC0008880FF1F10B50349086D8047BFF34F8FF1
:103CD00010BD00008880FF1F10B50349486D804764
:103CE000BFF34F8F10BD00008880FF1F10B5034940
:103CF000886D8047BFF34F8F10BD00008880FF1F85
:103D000010B50349C86D8047BFF34F8F10BD000049
:103D10008880FF1F10B50349086E8047BFF34F8F9F
:103D200010BD00008880FF1F10B50349486E804712
:103D3000BFF34F8F10BD00008880FF1F10B50349EF
:103D4000886E8047BFF34F8F10BD00008880FF1F33
:103D500010B50349C86E8047BFF34F8F10BD0000F8
:103D60008880FF1F10B50349086F8047BFF34F8F4E
:103D700010BD00008880FF1F10B50349486F8047C1
:103D8000BFF34F8F10BD00008880FF1F10B503499F
:103D9000886F8047BFF34F8F10BD00008880FF1FE2
:103DA00010B50349C86F8047BFF34F8F10BD0000A7
:103DB0008880FF1F10B50349D1F880008047BFF30A
:103DC0004F8F10BD8880FF1F10B50349D1F88400C4
:103DD0008047BFF34F8F10BD8880FF1F10B5034988
:103DE000D1F888008047BFF34F8F10BD8880FF1F38
:103DF00010B50349D1F88C008047BFF34F8F10BD39
:103E00008880FF1F10B50349D1F890008047BFF3A9
:103E10004F8F10BD8880FF1F10B50349D1F8940063
:103E20008047BFF34F8F10BD8880FF1F10B5034937
:103E3000D1F898008047BFF34F8F10BD8880FF1FD7
:103E400010B50349D1F89C008047BFF34F8F10BDD8
:103E50008880FF1F10B50349D1F8A0008047BFF349
:103E60004F8F10BD8880FF1F10B50349D1F8A40003
:103E70008047BFF34F8F10BD8880FF1F10B50349E7
:103E8000D1F8A8008047BFF34F8F10BD8880FF1F77
:103E900010B50349D1F8AC008047BFF34F8F10BD78
:103EA0008880FF1F10B50349D1F8B0008047BFF3E9
:103EB0004F8F10BD8880FF1F10B50349D1F8B400A3
:103EC0008047BFF34F8F10BD8880FF1F10B5034997
:103ED000D1F8B8008047BFF34F8F10BD8880FF1F17
:103EE00010B50349D1F8BC008047BFF34F8F10BD18
:103EF0008880FF1F10B50349D1F8C0008047BFF389
:103F00004F8F10BD8880FF1F10B50349D1F8C40042
:103F10008047BFF34F8F10BD8880FF1F10B5034946
:103F2000D1F8C8008047BFF34F8F10BD8880FF1FB6
:103F300010B50349D1F8CC008047BFF34F8F10BDB7
:103F40008880FF1F10B50349D1F8D0008047BFF328
:103F50004F8F10BD8880FF1F10B50349D1F8D400E2
:103F60008047BFF34F8F10BD8880FF1F10B50349F6
:103F7000D1F8D8008047BFF34F8F10BD8880FF1F56
:103F800010B50349D1F8DC008047BFF34F8F10BD57
:103F90008880FF1F10B50349D1F8E0008047BFF3C8
:103FA0004F8F10BD8880FF1F10B50349D1F8E40082
:103FB0008047BFF34F8F10BD8880FF1F10B50349A6
:103FC000D1F8E8008047BFF34F8F10BD8880FF1FF6
:103FD00010B50349D1F8EC008047BFF34F8F10BDF7
:103FE0008880FF1F10B50349D1F8F0008047BFF368
:103FF0004F8F10BD8880FF1F10B50349D1F8F40022
:104000008047BFF34F8F10BD8880FF1F10B5034955
:10401000D1F8F8008047BFF34F8F10BD8880FF1F95
:1040200010B50349D1F8FC008047BFF34F8F10BD96
:104030008880FF1F10B50349D1F800018047BFF306
:104040004F8F10BD8880FF1F10B50349D1F80401C0
:104050008047BFF34F8F10BD8880FF1F10B5034905
:10406000D1F808018047BFF34F8F10BD8880FF1F34
:1040700010B50349D1F80C018047BFF34F8F10BD35
:104080008880FF1F10B50349D1F810018047BFF3A6
:104090004F8F10BD8880FF1F10B50349D1F8140160
:1040A0008047BFF34F8F10BD8880FF1F10B50349B5
:1040B000D1F818018047BFF34F8F10BD8880FF1FD4
:1040C00010B50349D1F81C018047BFF34F8F10BDD5
:1040D0008880FF1F10B50349D1F820018047BFF346
:1040E0004F8F10BD8880FF1F10B50349D1F8240100
:1040F0008047BFF34F8F10BD8880FF1F10B5034965
:10410000D1F828018047BFF34F8F10BD8880FF1F73
:1041100010B50349D1F82C018047BFF34F8F10BD74
:104120008880FF1F10B50349D1F830018047BFF3E5
:104130004F8F10BD8880FF1F10B50349D1F834019F
:104140008047BFF34F8F10BD8880FF1F10B5034914
:10415000D1F838018047BFF34F8F10BD8880FF1F13
:1041600010B50349D1F83C018047BFF34F8F10BD14
:104170008880FF1F10B50349D1F840018047BFF385
:104180004F8F10BD8880FF1F10B50349D1F844013F
:104190008047BFF34F8F10BD8880FF1F10B50349C4
:1041A000D1F848018047BFF34F8F10BD8880FF1FB3
:1041B00010B50349D1F84C018047BFF34F8F10BDB4
:1041C0008880FF1F10B50349D1F850018047BFF325
:1041D0004F8F10BD8880FF1F10B50349D1F85401DF
:1041E0008047BFF34F8F10BD8880FF1F10B5034974
:1041F000D1F858018047BFF34F8F10BD8880FF1F53
:1042000010B50349D1F85C018047BFF34F8F10BD53
:104210008880FF1F10B50349D1F860018047BFF3C4
:104220004F8F10BD8880FF1F10B50349D1F864017E
:104230008047BFF34F8F10BD8880FF1F10B5034923
:10424000D1F868018047BFF34F8F10BD8880FF1FF2
:1042500010B50349D1F86C018047BFF34F8F10BDF3
:104260008880FF1F10B50349D1F870018047BFF364
:104270004F8F10BD8880FF1F10B50349D1F874011E
:104280008047BFF34F8F10BD8880FF1F10B50349D3
:10429000D1F878018047BFF34F8F10BD8880FF1F92
:1042A00010B50349D1F87C018047BFF34F8F10BD93
:1042B0008880FF1F10B50349D1F880018047BFF304
:1042C0004F8F10BD8880FF1F10B50349D1F88401BE
:1042D0008047BFF34F8F10BD8880FF1F10B5034983
:1042E000D1F888018047BFF34F8F10BD8880FF1F32
:1042F00010B50349D1F88C018047BFF34F8F10BD33
:104300008880FF1F10B50349D1F890018047BFF3A3
:104310004F8F10BD8880FF1F10B50349D1F894015D
:104320008047BFF34F8F10BD8880FF1F10B5034932
:10433000D1F898018047BFF34F8F10BD8880FF1FD1
:1043400010B50349D1F89C018047BFF34F8F10BDD2
:104350008880FF1F10B50349D1F8A0018047BFF343
:104360004F8F10BD8880FF1F10B50349D1F8A401FD
:104370008047BFF34F8F10BD8880FF1F10B50349E2
:10438000D1F8A8018047BFF34F8F10BD8880FF1F71
:1043900010B50349D1F8AC018047BFF34F8F10BD72
:1043A0008880FF1F10B50349D1F8B0018047BFF3E3
:1043B0004F8F10BD8880FF1F10B50349D1F8B4019D
:1043C0008047BFF34F8F10BD8880FF1F10B5034992
:1043D000D1F8B8018047BFF34F8F10BD8880FF1F11
:1043E00010B50349D1F8BC018047BFF34F8F10BD12
:1043F0008880FF1F10B50349D1F8C0018047BFF383
:104400004F8F10BD8880FF1F10B50349D1F8C4013C
:104410008047BFF34F8F10BD8880FF1F10B5034941
:10442000D1F8C8018047BFF34F8F10BD8880FF1FB0
:1044300010B50349D1F8CC018047BFF34F8F10BDB1
:104440008880FF1F10B50349D1F8D0018047BFF322
:104450004F8F10BD8880FF1F10B50349D1F8D401DC
:104460008047BFF34F8F10BD8880FF1F10B50349F1
:10447000D1F8D8018047BFF34F8F10BD8880FF1F50
:1044800010B50349D1F8DC018047BFF34F8F10BD51
:104490008880FF1F10B50349D1F8E0018047BFF3C2
:1044A0004F8F10BD8880FF1F10B50349D1F8E4017C
:1044B0008047BFF34F8F10BD8880FF1F10B50349A1
:1044C000D1F8E8018047BFF34F8F10BD8880FF1FF0
:1044D00010B50349D1F8EC018047BFF34F8F10BDF1
:1044E0008880FF1F10B50349D1F8F0018047BFF362
:1044F0004F8F10BD8880FF1F10B50349D1F8F4011C
:104500008047BFF34F8F10BD8880FF1F10B5034950
:10451000D1F8F8018047BFF34F8F10BD8880FF1F8F
:1045200010B50349D1F8FC018047BFF34F8F10BD90
:104530008880FF1F10B504462146022000F002F8D3
:1045400010BD000070B503460A4600210024002576
:1045500023B1012B05D0022B09D105E0104D042415
:1045600007E0104D042404E00F4D042401E0002076
:1045700070BD00BF15B15068A04201D20020F7E71E
:1045800009E002F10800405C6E5CB04201D00020FE
:10459000EEE7481CC1B2A142F3DB0120E8E70000CE
:1045A000D88B0000DC8B0000E08B000010B50446C7
:1045B00021460120FFF7C6FF10BD0000002004497E
:1045C0000978012901D1012000E000207047000096
:1045D0006880FF1F01460020054A52780A40044BBC
:1045E0005B789A4201D1012000E000207047000072
:1045F0006880FF1F01460020054A92780A40044B5C
:104600009B789A4201D1012000E000207047000011
:104610006880FF1F01460020054A12780A40044BBB
:104620001B789A4201D1012000E000207047000071
:104630006880FF1F01460120704701460120704736
:1046400010B5044621460020FFF77CFF10BD000096
:104650001CB50020019000900024694601A8FEF7D7
:104660003DFE04460A48D0F8CC00019988420CD39C
:104670000748D0F8CC000649D1F8D010084400997A
:10468000884202D2012C00D100E0002420461CBD4B
:104690001888FF1F2DE9FF4107460D4616460024E6
:1046A000002000900190029003906A4631463846FF
:1046B00002F056FB0AE01DF80400295D884203D091
:1046C000002004B0BDE8F081601CC4B2102CF2D30D
:1046D0000120F6E70246002108E0064850F83100C4
:1046E000904201D101207047481CC1B20229F4DB7D
:1046F0000020F8E75880000001480078704700006B
:104700007C80FF1F00200349898809B9012000E04F
:10471000002070476880FF1F10B50246002100236B
:1047200003235068984201D2002010BD0AE002F134
:104730000800405C054C645CA04201D00020F4E716
:10474000481CC1B29942F2DB0120EEE7E48B000085
:1047500010B5044604F0010048B100BF40F2231038
:104760001A49086043F21020086000BF00BF04F03F
:10477000020028B100BF16481649086100BF00BFFB
:1047800004F0040030B100BF4AF201501249088021
:1047900000BF00BF04F0100018B14AF2085000F04A
:1047A000A5F804F0400018B14AF2035000F09EF85A
:1047B00004F0800040B100BF772008490860074935
:1047C0000831086000BF00BF10BD000000040140B8
:1047D0000100A5A500800440FC3B054004080540FD
:1047E00010B5044604F0010028B100BF00201949AB
:1047F000086000BF00BF04F0020028B100BF1648E7
:104800001649086100BF00BF04F0040030B100BFCA
:104810004FF425401249088000BF00BF04F010008B
:1048200018B14AF2085000F053F804F0400018B1F3
:104830004AF2035000F04CF804F0800040B100BF91
:1048400076200849086007490831086000BF00BFAA
:1048500010BD0000000401400000A5A50080044038
:10486000FC3B05400408054010B500BF0F48008818
:1048700000F00200022800D104E040F267410CA0E1
:10488000FCF7A0FE00BF0948001D007800F0C00042
:1048900040F00F000549091D08701020034911312F
:1048A00008701E20FCF7B0FE002010BDFE4305403E
:1048B0002E2E5C447269766572735C7372635C68F9
:1048C0006333325F6C6C5F7077632E6300000000AF
:1048D00004490988814341F42541034AA2F8FE13A3
:1048E00070470000FE430540004005400349098829
:1048F0000143034AA2F8FE1370470000FE4305403F
:10490000004005402DE9FC4781460D4616461F46EE
:104910000A9C00200190804600900CB9BDE8FC87FD
:104920000EB107B115B904202070F7E72246694699
:104930004846FEF74BFB207800B1EFE7224601A97D
:104940004846FDF7BFFA207800B1E7E7BDF8000060
:10495000A84201DD284601E0BDF800000090BDF846
:10496000000038804FF0000820E00198C0680199ED
:104970008988405C06F8080000BF00BF0198808865
:10498000401C019988800198808801994988884253
:1049900006DB0198808801994988401A019988802E
:1049A00000BF00BF08F101001FFA80F8BDF8000049
:1049B0008045DADB00BF0198C08801998988884268
:1049C00003D100200199087202E0012001990872C8
:1049D00000BF0020207000BFA0E700007CB50024CD
:1049E0000020019000900025FDF774FD04466A4602
:1049F00001A92046FEF724FC05460098242808D388
:104A0000012D06D100BF242202480199FBF7AFFC1B
:104A100000BF7CBD2089FF1F01490860704700006E
:104A20001080FF1F2DE9F04106460C4600250127A6
:104A300060680B2805D2002730782246132100F049
:104A400033FA012F2DD100202F49086000250FE0F7
:104A50002D48006800022C4908600846006804F1EF
:104A60000801EA1C895C084327490860681CC5B234
:104A7000042DEDD300202449486000250FE0224892
:104A800040680002204948600846406804F1080177
:104A9000EA1D895C08431C494860681CC5B2042DA6
:104AA000EDD319490868FFF7C5FD012805D116495E
:104AB0004868FFF7C2FD012807D0012F05D13078E3
:104AC0002246312100F0F0F90027012F14D10120F6
:104AD000FDF7CAFE0C4A51681068FDF78FFE30786A
:104AE00040302072102161728221A1720320606027
:104AF00001200649087004E0FDF742FD0020FDF7A3
:104B0000B3FEBDE8F08100007080FF1F7880FF1FBA
:104B100030B5A9B005460C46A4216846FBF740FC19
:104B200001F06CF800906A467821284600F0BCF944
:104B3000054828900548046002ABDDE90002289989
:104B400001F0B0F829B030BD514B00008480FF1F48
:104B500010B504460CB900F037F80548006830B1CC
:104B6000204603490968884700200149086010BDB4
:104B70008480FF1F70B505460C460126FDF7A4FC96
:104B8000022805D0002628782246242100F08CF93E
:104B9000012E08D10320FDF767FE287840302072EF
:104BA0000120606001E0FDF7EBFC70BD20B900BFA3
:104BB0000121044A117004E000BF0221014A117072
:104BC00000BF70475080FF1F044880880349097860
:104BD00090FBF1F00249888070470000E88B0000EC
:104BE0006880FF1F014981F8E50070471888FF1FA2
:104BF0002DE9F04105460C4600270026FFF7E4FFAB
:104C00002046FFF71DFD012808D12878224678218B
:104C100000F04AF91B48C4F8A00031E02046FFF735
:104C2000C5FC01280FD1267B607B40EA0626304672
:104C3000FDF714FE28782246782100F035F9124855
:104C4000C4F8A0001CE02046FFF774FC012812D134
:104C5000FDF72EFEFCF7B5FD0746012F05D128789C
:104C600040302072042060600AE028782246122139
:104C700000F01AF904E028782246122100F014F915
:104C8000BDE8F08101180000E51700002DE9F047AC
:104C900004460F4690464FF0000900BF24B144F08F
:104CA0000F000F2800D103E0AB2126A0FCF78AFCFF
:104CB00000BF00BF072F00D803E0AC2121A0FCF704
:104CC00081FC00BF00BFB8F1070F00D803E0AD21A1
:104CD0001CA0FCF777FC00BF00BF224800687728C3
:104CE00000D103E0AE2117A0FCF76CFC00BF24E06C
:104CF00004F00100E0B14FEAC960050E281DC6B2FC
:104D000007FA06F008FA05F108430721B140072227
:104D1000AA40114308400721B1400722AA4011438D
:104D2000104A121F12688A4310430E49091F086077
:104D3000640809F1010000F0FF09002CD8D1BDE89A
:104D4000F08700002E2E5C447269766572735C7386
:104D500072635C686333325F6C6C5F7372616D2E7B
:104D6000630000000408054010B5044600F03FFF52
:104D7000A04203D10120074948700AE000F030FF4B
:104D8000A04203D102200349487002E000200149FB
:104D9000487010BD6880FF1F70B505460C46C82CD2
:104DA00001D9002070BD224629460448FBF7DFFAEE
:104DB0000248001FC0F8E0400120F3E71C88FF1FF5
:104DC0002DE9F04105460C4600260027667A012EA3
:104DD00002D0022E35D118E02878403020721B49CD
:104DE000102001F0CFFF0746012F08D110221749EC
:104DF00004F10A00FBF7BBFA1220606004E0287897
:104E00002246352100F050F81CE010220F4904F131
:104E10000A00FFF73FFC01280DD1287840302072AE
:104E200002206060012210210848FBF7B2FA03203B
:104E300000F042F804E028782246352100F034F8EA
:104E400000E000BF00BFBDE8F08100004489FF1F03
:104E500000B585B000200290019001AB02AA03A921
:104E60000820FEF7EBFB012808D1002000900198F4
:104E7000C1B2034B03AA0298FEF786FD05B000BD40
:104E80003536000001490870704700006880FF1F38
:104E900018B10121034A117002E00021014A11708A
:104EA000704700007C80FF1F7F2313725072917245
:104EB0000323536070470000014988707047000069
:104EC0006880FF1F7FB505460C460026B84800687D
:104ED0000390B74840680290B54880680190B44894
:104EE000C068009000BF04F0E060E8B104F0E0604A
:104EF000B0F1807F18D004F0E060B0F1007F13D0F3
:104F000004F0E060B0F1407F0ED004F0E060B0F15A
:104F1000806F09D004F0E060B0F1A06F04D004F01D
:104F2000E060B0F1C06F00D104E040F2AE21A1A07A
:104F3000FCF748FB00BF00BF04F07000B8B104F0FC
:104F40007000102813D004F0700020280FD004F057
:104F5000700030280BD004F07000402807D004F017
:104F60007000502803D004F07000602800D104E0E5
:104F700040F2AF218FA0FCF725FB00BF00BF04F477
:104F8000E020E8B104F4E020B0F5803F18D004F44C
:104F9000E020B0F5003F13D004F4E020B0F5403F2E
:104FA0000ED004F4E020B0F5802F09D004F4E02006
:104FB000B0F5A02F04D004F4E020B0F5C02F00D14C
:104FC00004E04FF42C717BA0FCF7FCFA00BF00BF9B
:104FD00004F4E000E8B104F4E000B0F5801F18D05C
:104FE00004F4E000B0F5001F13D004F4E000B0F5C5
:104FF000401F0ED004F4E000B0F5800F09D004F497
:10500000E000B0F5A00F04D004F4E000B0F5C00F4C
:1050100000D104E040F2B12166A0FCF7D3FA00BF52
:1050200000BF04F00700B8B104F00700012813D056
:1050300004F0070002280FD004F0070003280BD06B
:1050400004F00700042807D004F00700052803D067
:1050500004F00700062800D104E040F2B22155A078
:10506000FCF7B0FA00BF00BF04F4E060E8B104F45C
:10507000E060B0F5807F18D004F4E060B0F5007F08
:1050800013D004F4E060B0F5407F0ED004F4E0608B
:10509000B0F5806F09D004F4E060B0F5A06F04D0E3
:1050A00004F4E060B0F5C06F00D104E040F2B32139
:1050B00040A0FCF787FA00BF00BF04F4E040E8B16D
:1050C00004F4E040B0F5805F18D004F4E040B0F59F
:1050D000005F13D004F4E040B0F5405F0ED004F45C
:1050E000E040B0F5804F09D004F4E040B0F5A04FA7
:1050F00004D004F4E040B0F5C04F00D104E04FF418
:105100002D712CA0FCF75EFA00BF00BF314828408B
:1051100000B104E040F2B52126A0FCF753FA00BF2D
:1051200000BF2D48008800F0010000B104E040F20B
:10513000B62120A0FCF746FA00BF2848007800F00E
:105140000700052817D1012600BF1948006900F0A3
:10515000010000B104E040F2BD2116A0FCF732FAD4
:1051600000BF1F4812490860C01248608860C860CC
:105170001E20FCF749FA19482638006AA84304EAB9
:10518000050108431549263908621E20FCF73CFA40
:10519000012E0BD1064903980860029848600198D7
:1051A00088600098C8601E20FCF72EFA7FBD0000C2
:1051B000008004402E2E5C447269766572735C73C5
:1051C00072635C686333325F6C6C5F636C6B2E631D
:1051D0000000000077777707FE4305402640054032
:1051E000EEFAFFFF7FB504460025304800680390C3
:1051F0002E48406802902D48806801902B48C06876
:10520000009000BF4CB1012C07D0022C05D0032C1C
:1052100003D0042C01D0052C00D104E04FF411710F
:1052200023A0FCF7CFF900BF00BF2948008800F099
:10523000010000B104E040F245211DA0FCF7C2F9D5
:1052400000BF2448007800F00700052801D0052C95
:1052500017D1012500BF1548006900F0010000B119
:1052600004E040F24D2112A0FCF7ACF900BF1A484F
:105270000E490860C01248608860C8601E20FCF7B4
:10528000C3F9144804701E20FCF7BEF9012D0BD1A0
:105290000649039808600298486001988860009861
:1052A000C8601E20FCF7B0F97FBD000000800440FC
:1052B0002E2E5C447269766572735C7372635C68EF
:1052C0006333325F6C6C5F636C6B2E6300000000B5
:1052D000FE43054026400540EEFAFFFF2DE9F34F5F
:1052E0002DED088B8BB08A468A4B0FCB03AC0FC4D5
:1052F0004FF0FF30029000BF8749139888420BD0CF
:1053000086491398884207D085491398884203D06C
:1053100084491398884200D104E040F2EB1182A046
:10532000FCF750F900BFDAF80040DAF80470002CFE
:105330007DD0002FFCD01398406900F4600500BFB9
:105340005DB1B5F5001F08D0B5F5C00F05D0B5F5B6
:10535000200F02D0B5F5400F00D104E040F2F1116A
:1053600071A0FCF72FF900BF680D03A931F81050A8
:1053700007FB05F04000B4FBF0F0461EFF2E7ED880
:10538000CAF8086007FB05F04000B4FBF0F100FB31
:1053900011400790079830B99FED6B0A8AED040A17
:1053A000002002906BE00220A0FB051200204FF0CD
:1053B000010C16EB0C0C40EB0003A1FB0C0E02FBE6
:1053C0000CE201FB03220021A0FB078302FB073252
:1053D00000FB01294FF480710022A8FB01C309FBE7
:1053E000013108FB021052084FEA34031CEB0301A1
:1053F000504122460023CDE9001008460199FAF7F2
:1054000085FF8021B0EB010BBBF17F0F37D8CAF8C5
:105410000CB049004FF0000C4246A2FB010E09FB04
:1054200001E108FB0C1980460020802200E06BE0BF
:105430001BEB020240EB00030021A2FB040C03FB68
:1054400004C302FB0131CDE9080140464946FAF7A1
:10545000BFFF41EC1A0BDDE90801FAF7B9FF53EC85
:105460001A2BFAF7DDFFFBF74AF800EE100AF7EE09
:10547000000A30EE608A8AED048A002002900298C9
:10548000B0F1FF3F40D104EB8400410007FB05F081
:105490004000B1FBF0F0401D0A21B0FBF1F0461EC8
:1054A000FF2E31D8CAF808600220A0FB05120020A8
:1054B0004FF0010C16EB0C0C40411346A1FB0C2ED7
:1054C00003FB0CE301FB00310023A2FB078C01FB73
:1054D00007C102FB031940464946FAF779FF41EC40
:1054E0001A0B2046FAF767FF53EC1A2BFAF798FFCE
:1054F000FBF705F800EE100AF7EE000A30EE608ABE
:105500008AED048A0020029002980BB0BDEC088B53
:10551000BDE8FC8F4880000000D0014000D401406D
:1055200000100240001402402E2E5C447269766521
:1055300072735C7372635C686333325F6C6C5F754B
:10554000736172742E6300000000000002498988B4
:10555000091A014A918070476880FF1F0249C98873
:10556000091A014AD18070476880FF1F70B52B4D22
:105570002D6805F001051DB1294D2A4E356002E068
:10558000294D284E3560294D2D7805F00700062855
:1055900040D2DFE800F003080C11151A214D2D68E8
:1055A000234E356037E0234D214E356033E04FF414
:1055B00000451F4E35602EE01F4D1D4E35602AE020
:1055C0004FF400451A4E356025E0184DDA352D6848
:1055D000C5F30822154D263DD5F800512B0F134D6C
:1055E000DA352D6805F01F04104D263DD5F8005121
:1055F00005F080050DB9104901E00A4D2968651CC8
:10560000B1FBF5F5561C75435E1CB5FBF6F5084E6F
:10561000356000E000BF00BF70BD0000840601409F
:105620000024F4000480FF1F002D310126400540B6
:105630000080FF1F00127A0000366E0100B5064898
:10564000006840F4700004490860FFF78FFF0020F5
:1056500001498039086000BD88ED00E02DE9FF4177
:1056600007460D466946384602F0E0FC01216846CF
:1056700002F05DFC002406E05DF8240002F020FC4E
:105680004DF82400641C042CF6DB684602F08EFC06
:105690000646034850F82500704004B0BDE8F0818C
:1056A000208B000010B500240C480088401C84B2F8
:1056B00001210B4800F09AF824B108480088401CEA
:1056C0000649088007480088401C84B224B1054878
:1056D0000088401C0349088010BD00001680FF1F91
:1056E000004402401880FF1F10B586B0012102203F
:1056F000FCF702FA02A800F055FA4FF4A0600290FD
:1057000040200390002004900A20ADF8140002AA63
:1057100000212A4800F026F90120FBF755FF01225D
:105720000021264800F0D0F80120FBF74DFF0122B0
:105730000421224800F0B8F90120FBF745FF422080
:10574000ADF800000620ADF802001D480190684643
:10575000FEF786F9BDF90200002807DB00F01F0103
:1057600001228A401749430941F8232000BFBDF9AF
:1057700002000F21002804DB0A07130E124A1354FB
:1057800006E00A07140E114A00F00F031B1FD45441
:1057900000BFBDF9020000280DDB00BF00BF00F014
:1057A0001F02012191404209920002F1E022C2F859
:1057B000001100BF00BF00BF06B010BD0044024092
:1057C000A556000080E200E000E400E018ED00E0F3
:1057D00070B50021044800F041F80546284664F3FE
:1057E0001F400446204670BD0044024070B5044688
:1057F0000D4600BF0F48844202D00F48844200D1BA
:1058000004E040F25B210DA0FBF7DCFE00BF00BF0F
:105810002DB145F00110B0F1011F00D104E04FF4AB
:10582000177106A0FBF7CEFE00BF6069A843606158
:1058300070BD000000400240004402402E2E5C4437
:105840007269766572735C7372635C686333325F2E
:105850006C6C5F746D72302E6300000070B504468E
:105860000D4600BF0E48844202D00E48844200D14B
:1058700004E04FF499710CA0FBF7A4FE00BF00BF39
:105880000DB1012D00D104E040F2331106A0FBF769
:1058900099FE00BF04EB8506306880B270BD000041
:1058A00000400240004402402E2E5C44726976653E
:1058B00072735C7372635C686333325F6C6C5F74C9
:1058C0006D72302E6300000070B504460D4616461A
:1058D00000BF1A48844202D01948844200D104E033
:1058E00040F2F71117A0FBF76DFE00BF00BF0DB12E
:1058F000012D00D104E04FF4FC7112A0FBF762FE11
:1059000000BF00BF0EB1012E00D104E040F2F9113A
:105910000CA0FBF757FE00BF012E06D120692A011B
:10592000710391400843206106E020692A014FF489
:10593000005191408843206170BD0000004002404A
:10594000004402402E2E5C447269766572735C736B
:1059500072635C686333325F6C6C5F746D72302E9F
:10596000630000002DE9F04706460D4614464FF04F
:10597000000914B96FF002097FE000BF4048864279
:1059800002D04048864200D103E0BD213EA0FBF793
:1059900019FE00BF00BF0DB1012D00D103E0BE21F3
:1059A00039A0FBF70FFE00BF00BF206858B1206888
:1059B000B0F5007F07D02068B0F5807F03D0206865
:1059C000B0F5A06F00D103E0BF212FA0FBF7FAFDD7
:1059D00000BF00BF6068E8B1606810281AD0606836
:1059E000202817D06068302814D06068402811D073
:1059F000606850280ED0606860280BD060687028FE
:105A000008D06068802805D06068902802D060685F
:105A1000A02800D103E0C0211BA0FBF7D3FD00BFED
:105A200000BFA06820B148F20201A068884200D1FE
:105A300003E0C12114A0FBF7C5FD00BF06EB8507FD
:105A40000020386006F1080000EB8508A089C8F83E
:105A5000000030692A0148F2F27191408843D4E98C
:105A600000121143A26811432A0191402B0148F210
:105A7000F2729A401140084330614846BDE8F08711
:105A800000400240004402402E2E5C44726976655C
:105A900072735C7372635C686333325F6C6C5F74E7
:105AA0006D72302E6300000070B504460D46164638
:105AB00000BF1748844202D01648844200D104E057
:105AC00040F22A2114A0FBF77DFD00BF00BF2DB1DD
:105AD00045F00410B0F1041F00D104E040F22B2186
