:020000040000FA
:1000000048C0FF1F99020000DF020000E10200006B
:10001000E3020000E5020000E7020000000000002B
:10002000000000000000000000000000E9020000E5
:10003000EB02000000000000ED020000EF020000F3
:10004000613D0000753D0000893D00009D3D0000C0
:10005000B13D0000C53D0000D93D0000ED3D000070
:10006000013E0000153E0000293E00003D3E00001C
:10007000513E0000653E0000793E00008D3E0000CC
:10008000A13E0000B53E0000C93E0000DD3E00007C
:10009000F13E0000053F0000193F00002D3F000029
:1000A000413F0000553F0000693F00007D3F0000D8
:1000B000913F0000A53F0000B93F0000CD3F000088
:1000C000E13F0000F53F0000094000001D40000036
:1000D0003140000045400000594000006D400000E4
:1000E0008140000095400000A9400000BD40000094
:1000F000D1400000E5400000F94000000D41000043
:100100002141000035410000494100005D410000EF
:10011000714100008541000099410000AD4100009F
:10012000C1410000D5410000E9410000FD4100004F
:100130001142000025420000394200004D420000FB
:100140006142000075420000894200009D420000AB
:10015000B1420000C5420000D9420000ED4200005B
:100160000143000015430000294300003D43000007
:100170005143000065430000794300008D430000B7
:10018000A1430000B5430000C9430000DD43000067
:10019000F143000005440000194400002D44000014
:1001A0004144000055440000694400007D440000C3
:1001B00091440000A5440000B9440000CD44000073
:1001C000E1440000F5440000094500001D45000021
:1001D0003145000045450000594500006D450000CF
:1001E0008145000095450000A9450000BD4500007F
:1001F000D1450000E5450000F94500000D4600002E
:100200002146000035460000494600005D460000DA
:10021000714600008546000099460000AD4600008A
:10022000C1460000D5460000E9460000FD4600003A
:100230001147000025470000394700004D470000E6
:10024000F1020000F1020000F1020000F1020000E2
:10025000F1020000F1020000F1020000F1020000D2
:10026000F1020000F1020000F1020000F1020000C2
:10027000F1020000F1020000F1020000F1020000B2
:10028000DFF810D000F00AFA004800477984000037
:10029000AFF3008048C0FF1F16484FF077010160A0
:1002A00015484FF07701016014484FF48851016000
:1002B00010484FF0760101600F484FF07601016061
:1002C0004FF000504FF00002002100A1814200D900
:1002D00002440B4802600B4880470B480047FEE78A
:1002E000FEE7FEE7FEE7FEE7FEE7FEE7FEE7FEE7E6
:1002F000FEE70000040805400C0805400008054022
:1003000008ED00E0E1580000810200002DE9F05FF7
:100310000546002092469B46884606468146402474
:100320001BE0284641464746224600F013F9534653
:100330005A46C01A914110D311461846224600F081
:10034000FAF82D1A67EB01084F46224601200021DA
:1003500000F0F1F817EB00094E41201EA4F1010452
:10036000DFDC484631462A464346BDE8F09F40EA76
:1003700001039B0703D009E008C9121F08C0042A23
:10038000FAD203E011F8013B00F8013B521EF9D20A
:100390007047D2B201E000F8012B491EFBD2704732
:1003A0000022F6E710B513460A4604461946FFF741
:1003B000F0FF204610BD0EB540F2334102910021FE
:1003C000CDE900110A460B4600F01AF903B000BD52
:1003D0000EB540F2334202920022CDE900221346CC
:1003E00000F00EF903B000BD704710B507F05AFCDD
:1003F00010BD0120704700BFFEE77047192070470D
:10040000BFFFDFFFFFFEFFFFFFFFFFFFFFFFFFFF5D
:10041000FFFFFFFFFFFFFFFFFFFFFFFFFFFFFFFFEC
:100420002DE9F04D81EA030404F0004B21F0004572
:1004300014464FF0000A23F0004150EA050220D094
:1004400054EA01021DD0C5F30A570246C5F313034F
:10045000C1F31300C1F30A5640F4801543F480132E
:10046000A7EB0608101BD64608F2FD3873EB050013
:1004700002D308F1010801E092185B41B8F1000FC6
:1004800003DA00200146BDE8F08D00204FF4801112
:10049000064684460EE0171B73EB050705D3121BB7
:1004A00063EB050306434CEA010C49084FEA3000B0
:1004B00092185B4150EA0107EDD152EA030012D0D5
:1004C00082EA040083EA0501084305D0101BAB4112
:1004D00006D20122002306E000224FF0004302E092
:1004E0006FF0010253101AEB06004CEB085110EBB1
:1004F0000A0041EB0B01BDE8F04D00F072B801F0CD
:10050000004330B421F0004150EA010206D00A0D48
:10051000A2F56072C1F31301002A02DC30BC002096
:100520007047440F44EAC104C100E01830BC00EB3E
:10053000C25000F01FB8202A04DB203A00FA02F172
:10054000002070479140C2F1200320FA03F31943C1
:1005500090407047202A04DB203A21FA02F0002163
:10056000704721FA02F3D040C2F1200291400843C3
:10057000194670470029A8BF7047401C490008BFB2
:1005800020F00100704710B4B0FA80FC00FA0CF0C3
:1005900050EA010404BF10BC704749B1CCF12004FB
:1005A00021FA04F411FA0CF118BF01212143084388
:1005B000A3EB0C01CB1D4FEA00614FEA102042BFB4
:1005C000002010BC704700EBC35010440029A4BFAA
:1005D00010BC7047401C490008BF20F0010010BC4F
:1005E000704710B5141E73F1000408DA401C41F185
:1005F000000192185B411A4301D120F0010010BDA7
:100600002DE9F04D92469B4611B1B1FA81F202E01C
:10061000B0FA80F220329046FFF78DFF04460F4675
:1006200040EA0A0041EA0B0153465A46084313D0F8
:10063000114653EA010019D0C8F140025046FFF7B5
:1006400089FF05460E46504659464246FFF773FF5E
:10065000084305D0012004E020463946BDE8F08D6E
:100660000020054346EAE0762C4337430A986305A9
:10067000E40AA0EB08000022FD0A44EA47540A30CD
:1006800002D500200146E9E7010510196941DDE9BD
:10069000084500196941BDE8F04DA2E7064C074D39
:1006A00006E0E06840F0010394E807009847103442
:1006B000AC42F6D3FFF7E8FD64910000849100009E
:1006C00010B5002302B910BD01B110B90424147093
:1006D000F9E70C681CB9086000241470F3E70B6894
:1006E00005E0984202D105241470ECE71B691C69EF
:1006F000002CF6D118610461147000BFE3E700001C
:100700002DE9F84305460E46144600200090804629
:1007100000270CB9BDE8F8833248007840423249DE
:10072000084400F0030705F1140038442D490988F6
:10073000884202D903202070ECE722466946304601
:1007400001F070FC207810B905202070E2E727B195
:1007500024480088C01B234908802248008841F2B1
:100760005001081A20490844009000980680002093
:1007700000990861009845800020009988800099C0
:10078000C8801848008841F25001081A16490844E8
:1007900014300099C8600020009908721148008840
:1007A00041F25001081A1049084414300D490988D3
:1007B00041F25002511A0C4A1144401A1FFA80F8B3
:1007C00008EB05001FFA80F806480088A0EB080037
:1007D00004490880224605490098FFF771FF00BFD1
:1007E00098E700003C80FF1FB082FF1F3880FF1F8A
:1007F0001FB501220321052002F04AFA02A800F0E9
:10080000CFFD684600F0CAFB2A492B4800F0EFFBF9
:1008100000208DF80A008DF809008DF808000520E9
:100820008DF80C0002A800F01FFD00200190019837
:1008300020F01F00801C01903121019861F31020ED
:100840000190019820F0704000F1805001900198D3
:1008500020F0706000F180700190019820F4700029
:1008600000F58010019000208DF80000019820F024
:1008700080000190684600F045FA00BF202000F09B
:10088000B9F90128FAD100221146042004F03EFBF8
:10089000012211460B2004F039FB502001F0D4F85E
:1008A0004FF4404002F02CFC04F006F9052000F063
:1008B000A8FB1FBD10221100777777072DE9F041C3
:1008C00004460F46264604480068016830468847BB
:1008D00005462846BDE8F0811C80FF1F10B5FF20AB
:1008E00004F05EF8FFF784FF00F07EF807F05AF995
:1008F00002F0D9FF03F01BF903F01DF905F074FBBA
:10090000FF2004F095F810BD1CB5002400200190D4
:100910000090694601A802F0E9FD019C002006E074
:1009200054F82010019A114444F82010401C022869
:10093000F6D30249019808601CBD00001C80FF1F0F
:1009400010B50848006840F400600649086000BF20
:100950000221012002F0EAFA0028F9D0022001F079
:10096000C9F810BD0880FF1F00B585B001200090B8
:10097000902001904FF48070029000020390C00319
:100980000490684607F098F905B000BD00200549BD
:100990000988642905D30120024909886439014A7C
:1009A000118070471880FF1F00200549098829B170
:1009B000012003490988491E014A1180704700003F
:1009C0001680FF1F2DE9F04104460D4616460548E6
:1009D000006832462946436820469847074638460D
:1009E000BDE8F0811C80FF1F30B58BB00024384873
:1009F000006AC0F3026137480068C8400521B0FBB7
:100A0000F1F53548007828B9002000F01BFBA02044
:100A100000F0A0FE0AA800F0C1FB00208DF828001D
:100A20008DF829008DF82A0001224FF44041022060
:100A300002F02EF90AA800F04DFB0121080401F094
:100A400085F801A801F0B4FAB820079003200890B7
:100A50000020059010200290002003901F20ADF888
:100A600004002220ADF8060001A801F0BBF9012026
:100A700001F054F900BF022001F08AF901281AD1CF
:100A8000022001F023F9012001F082F9012804D0AD
:100A9000042001F07DF9012803D1052001F016F9A9
:100AA00009E001F05DF900214FF4803001F04EF8CB
:100AB00000200BB030BD641CAC42DCD901F050F911
:100AC00000214FF4803001F041F86FF00700F0E7AB
:100AD000004005400080FF1F2044054000B585B060
:100AE000684602F04DFB0020ADF800000220ADF892
:100AF00002006A46C10202F021F94FF4805102203F
:100B000002F0C2FA05B000BD08B500200090054A09
:100B10001278911E034A50686A4600F05AFC009809
:100B200080B208BD5491000010B5002403F0E8FE27
:100B3000012806D100F080FC06F0C8FB012800D196
:100B40000124204610BD10B5002401F04FFE0446DC
:100B5000012C02D101F038FE0446204610BD0000F1
:100B600070B5002400250026FFF7CEFF0446044898
:100B70004068C589A54200D10126304670BD0000FD
:100B80005491000070B5044625680C48854214D97C
:100B90000B48854211D860680A4908600846006819
:100BA00009490860206880F3088800BF24F07F00AE
:100BB0000649086004480068804770BD0080FF1F38
:100BC000007002208880FF1F8C80FF1F08ED00E06E
:100BD00010B50024FFF7B7FF012809D103F090FEFC
:100BE000012805D001F096FD04462046FFF7CAFF14
:100BF00010BD000010B5044600BF24B144F06900E8
:100C0000692800D104E04FF4B26106A0FFF7F3FBBE
:100C100000BF0C480078204008B1012010BD002022
:100C2000FCE700002E2E5C447269766572735C737B
:100C300072635C686333325F6C6C5F636C6B2E63F2
:100C4000000000003C40054070B50446002500BF90
:100C50000CB1012C00D104E040F2E6411FA0FFF7E7
:100C6000CAFB00BF00BF2548008800F0010000B1AA
:100C700004E040F2E74119A0FFF7BDFB00BF64B9F3
:100C80001F48007800F00700052801D1C54322E085
:100C900001201B49091D08701DE01948DA30006861
:100CA000C0F3C01030B94FF48051082000F0B1F902
:100CB000054605E04FF48051012000F0AAF90546F1
:100CC0004DB900200E49091D08704FF480512020B5
:100CD00000F09FF90546284670BD00002E2E5C44AA
:100CE0007269766572735C7372635C686333325FDA
:100CF0006C6C5F636C6B2E6300000000FE4305406C
:100D0000264005402DE9F041044614B96FF0020673
:100D10001FE100BF2079C0F3C01018B12079C0F3E3
:100D2000C01000B104E040F2B9418BA0FFF763FBB3
:100D300000BF00BF207900F01F00401C182805D814
:100D4000207900F01F00401C00B104E040F2BA41DD
:100D500081A0FFF750FB00BF00BF6068C0F3082010
:100D6000401CB0F5F07F06D86068C0F30820401C36
:100D7000142800D304E040F2BB4177A0FFF73BFB0F
:100D800000BF00BF0121606801EB1070102805D87A
:100D9000606801EB1070022800D304E040F2BC410F
:100DA0006DA0FFF728FB00BF2079C0F3C01008B981
:100DB000714901E071480168207900F01F00401C72
:100DC000B1FBF0F76068C0F30820401C00FB07F59A
:100DD00000BF6B48874203D86A48874200D304E0CB
:100DE00040F2C1415CA0FFF706FB00BF00BF6648B0
:100DF000854203D84010854200D304E040F2C2414E
:100E000055A0FFF7F8FA00BF00BF0121606801EBB1
:100E10001070B5FBF0F05D49884209D80121606887
:100E200001EB1070B5FBF0F05949884200D304E0A3
:100E300040F2C34148A0FFF7DEFA00BF00BF606880
:100E4000C0F30360401C102806D86068C0F303603C
:100E5000401C022800D304E040F2C4413EA0FFF74A
:100E6000CAFA00BF00BF6068C0F30350401C1028DE
:100E700006D86068C0F30350401C022800D304E089
:100E800040F2C54134A0FFF7B6FA00BF00BF60686A
:100E9000C0F30350401CB5FBF0F03C49884209D830
:100EA0006068C0F30350401CB5FBF0F0384988423D
:100EB00000D304E040F2C64127A0FFF79CFA00BF30
:100EC00000BF6068C0F30360401CB5FBF0F02F4921
:100ED000884209D86068C0F30360401CB5FBF0F09D
:100EE0002B49884200D304E040F2C7411AA0FFF723
:100EF00082FA00BF00BF2078012801D0207800B915
:100F000004E040F2C94114A0FFF775FA00BF00BF2A
:100F10002048008800F0010000B104E040F2CA411E
:100F20000DA0FFF768FA00BF2079C1091A480068D0
:100F300061F3C7101849086060680860207820B91C
:100F40000120FFF781FE064603E00020FFF77CFE4C
:100F500006463046BDE8F0812E2E5C447269766507
:100F600072735C7372635C686333325F6C6C5F6373
:100F70006C6B2E630000000000366E010480FF1FC2
:100F800040787D0140420F0000389C1C00C2EB0BF2
:100F9000C0E1E400FE430540004105400146002059
:100FA00009B9C01E22E000224A604A6822F080028D
:100FB0004A604A6822F01F024A6013234A6863F3BA
:100FC00010224A604A6822F0704202F180524A6060
:100FD0004A6822F0706202F180724A604A6822F424
:100FE000700202F580124A6001220A70704770B5E3
:100FF00004460D462946204604F0B6F804F008FCE5
:1010000070BD10B50446204604F03EFA04F000FC22
:1010100010BDF8B505460C46002000906FF007069D
:1010200009E02846FFF7E6FD012801D1002605E08A
:101030000098401C00900098A042F2D900BF3046B2
:10104000F8BD000070B50446002500BF0CB1012CAE
:1010500000D104E040F2624114A0FFF7CCF900BFD8
:1010600000BF1A48008800F0010000B104E040F21F
:1010700063410EA0FFF7BFF900BF6CB914480078B8
:1010800000F00700042802D16FF0050508E00120F8
:101090000E492231087003E000200C49223108700B
:1010A000A02000F057FB284670BD00002E2E5C44A7
:1010B0007269766572735C7372635C686333325F06
:1010C0006C6C5F636C6B2E6300000000FE43054098
:1010D0002640054070B5044614B96FF0020548E09B
:1010E00000BF2078012801D0207800B904E040F248
:1010F000454121A0FFF77FF900BF00BF607810B124
:101100006078012800D104E040F246411AA0FFF7C0
:1011100072F900BF00BFA07828B1A078012802D0E2
:10112000A078032800D104E040F2474112A0FFF765
:1011300062F900BF00BF1848008800F0010000B14C
:1011400004E04FF489610CA0FFF755F900BF607807
:10115000114923310870A078091D0870207820B942
:101160000120FFF76FFF054603E00020FFF76AFF4D
:101170000546284670BD00002E2E5C4472697665D7
:1011800072735C7372635C686333325F6C6C5F6351
:101190006C6B2E6300000000FE43054001460020FA
:1011A00009B9C01E03E000220A704A708A707047B5
:1011B00070B50446002500BF0CB1012C00D104E03D
:1011C00040F2A9311EA0FFF716F900BF00BF244866
:1011D000008800F0010000B104E040F2AA3118A03C
:1011E000FFF709F900BFFCB91E48007800F00700BE
:1011F000032802D16FF0050520E01A48DA300068B4
:10120000C0F3C01058B91748001D007810B96FF02E
:10121000050513E0012013490C3108700EE0012090
:1012200010490C31087009E000200E490C3108709B
:101230004FF480510820FFF7ECFE0546284670BDAC
:101240002E2E5C447269766572735C7372635C689F
:101250006333325F6C6C5F636C6B2E630000000065
:10126000FE4305402640054070B5044614B96FF0B2
:1012700002057FE000BF2078012801D0207800B966
:1012800004E040F289313CA0FFF7B5F800BF00BF91
:10129000607840B16078102805D06078202802D0AE
:1012A0006078302800D104E040F28A3132A0FFF7A4
:1012B000A2F800BF00BFA07810B1A078402800D1EC
:1012C00004E040F28B312CA0FFF795F800BF00BF7F
:1012D000E078802801D0E07800B904E04FF4637131
:1012E00025A0FFF788F800BF00BF2079012817D09C
:1012F0002079022814D02079032811D020790428DD
:101300000ED0207905280BD02079062808D0207926
:10131000072805D02079082802D02079092800D193
:1013200004E040F28D3114A0FFF765F800BF00BF64
:101330001948008800F0010000B104E040F28E314D
:101340000DA0FFF758F800BF207914490870E07825
:1013500061780843A17808430F491231087020785A
:1013600020B90120FFF724FF054603E00020FFF726
:101370001FFF0546284670BD2E2E5C4472697665B7
:1013800072735C7372635C686333325F6C6C5F634F
:101390006C6B2E6300000000FE430540A240054038
:1013A0000146002009B9C01E08E001220A7000228F
:1013B0008A704A708022CA7005220A71704770B51F
:1013C00004460D46164632462946204600F08AF964
:1013D00070BD70B504460D46164632462946204675
:1013E00000F080F970BD000010B50548806828B194
:1013F00003498868804700200149886010BD0000CB
:101400002480FF1F38B505460C460020009004B923
:1014100038BD22466946284600F004FE207800B117
:10142000F6E70020009908720098C088009988802B
:101430000020207000BFEBE710B500240020054914
:1014400089680870FFF760FB044602484068C48161
:1014500010BD0000549100002DE9F04F2DED088BD8
:1014600089B08346894601200490801E039000BF06
:101470006D48834508D06D48834505D06C48834549
:1014800002D06C48834500D104E040F29D116AA06F
:10149000FEF7B1FF00BFD9F80040D9F80460002C76
:1014A0007CD0002EFCD0B000B4FBF0F0451EFF2D28
:1014B00077D8C9F80850B000B4FBF0F100FB114038
:1014C0000590059830B99FED640A89ED040A002063
:1014D000039066E000206A1C40EB000C042300210E
:1014E000A2FB030E0CFB03E302FB0132A0FB06731D
:1014F00002FB063200FB01284FF480710022A7FB9B
:1015000001C308FB013107FB021052084FEA340304
:101510001CEB0301504122460023CDE90010084690
:101520000199FEF7F3FE8021B0EB010ABAF17F0FBB
:1015300035D8C9F80CA0490000203A46A2FB01CEDC
:1015400008FB01E107FB0018674680211AEB010246
:1015500040EB00030021A2FB040C03FB04C302FBCD
:101560000131CDE9060138464146FEF731FF41EC35
:101570001A0BDDE90601FEF72BFF53EC1A2BFEF7E1
:101580004FFFFEF7BCFF00EE100AF7EE000A30EE48
:10159000608A89ED048A0020039002E03EE000208A
:1015A00004900498D0BB04EB84004000B100B0FB71
:1015B000F1F0401D0A21B0FBF1F0451EFF2D2DD8A2
:1015C000C9F8085000206B1C404104214FF0000C6A
:1015D000A3FB012E00FB01E003FB0C016346A2FB11
:1015E000067C01FB06C102FB031838464146FEF7A4
:1015F000EFFE41EC1A0B2046FEF7DDFE53EC1A2BF2
:10160000FEF70EFFFEF77BFF00EE100AF7EE000A72
:1016100030EE608A89ED048A00200390039809B0B7
:10162000BDEC088BBDE8F08F00D0014000D4014034
:1016300000100240001402402E2E5C447269766550
:1016400072735C7372635C686333325F6C6C5F757A
:10165000736172742E6300000000000070B50546CF
:101660000C460026667A36B1032E05D0802E0AD0AD
:10167000832E0DD108E000BF2878403020726672BA
:10168000022060600AE000BF00202072606005E078
:1016900028782246122103F059FD00BF00BF70BD1B
:1016A00070B505460C460026667A012E06D0022E3D
:1016B00005D0812E0AD0822E0CD108E000BF2878F8
:1016C0004030207266720220606009E000BF002096
:1016D000606005E028782246122103F037FD00BF44
:1016E00000BF70BD70B503460C460020002100BF4E
:1016F00008E05D5C4540EDB2054E36F8155085EAD0
:101700002020491CA142F4D3C543ADB2156070BD81
:10171000E885000008B50D49096AC1F302630C4968
:101720000968D94042F210731944491EB1FBF3F223
:1017300006E0009200BF00994B1E00930029FAD1E9
:10174000011EA0F10100F4D108BD000000400540D9
:101750000080FF1F08B50C49096AC1F302630B49F9
:101760000968D9400A4B1944491EB1FBF3F206E05F
:10177000009200BF00994B1E00930029FAD1011E70
:10178000A0F10100F4D108BD004005400080FF1F1A
:101790008096980070B506460C460025657A30782C
:1017A00040302072657202206060812D10D006DC0E
:1017B000012D09D0022D13D0032D31D120E0822D2F
:1017C00014D0832D2CD121E0012003F09DFC2DE0CD
:1017D000012003F099FC812D01D10020606025E0FB
:1017E000022003F091FC03F02FFB1FE0022003F026
:1017F0008BFC822D01D10020606003F025FB15E0F9
:10180000042003F081FC03F01FFB0FE0042003F031
:101810007BFC832D01D10020606003F015FB05E007
:1018200030782246122103F091FC00BF00BF70BD4A
:1018300070B503460C460021002200250020D9780F
:10184000E278914201DD8E1A00E0561AF5B2012DC0
:1018500005D1914201DD00201CE001201AE0FE2D9F
:1018600005D1914201DA002014E0012012E0FF29A5
:1018700003D1FF2A01D001200CE0FF2903D0FF2A69
:1018800001D1002006E0FF2903D1FF2A01D1FF206A
:1018900000E0002070BD2DE9F84307460C4600200B
:1018A000009000250026804600906A462021384698
:1018B000FFF78FFD386A0099884200D1012500208A
:1018C00000906A4620212046FFF783FD206A009998
:1018D000884200D10126012D04D1012E02D04FF003
:1018E000000811E0012D03D0012E01D1B0460BE01C
:1018F000012D04D0012E02D04FF0000804E0214653
:101900003846FFF795FF80464046BDE8F88310B59E
:10191000002400F06BFF012807D100F055FF0128DB
:1019200001D1012402E0002400E00024204610BD83
:1019300010B504462CB9034B31220349032001F0B2
:101940006FF810BD614D0000E119000010B50446AC
:101950002CB9034B31220349012001F061F810BD7D
:10196000614D0000691900002DE9FC410646002583
:1019700000200090019000240027042413480078E0
:101980004030C0B28DF8000000BF05E00F49681C70
:10199000095C0DF80010C5B2601EA842F6D8012EF1
:1019A00003D100200DF8040002E001200DF804002E
:1019B000601CC4B204F074FA07466B46224600214C
:1019C000384604F0C1FABDE8FC810000EC9000004C
:1019D00010B504461CB901F035FF00BFFEE710BD8D
:1019E0002DE9FC41064600250020009001900024CE
:1019F00000270424134800784030C0B28DF800005E
:101A000000BF05E00F49681C095C0DF80010C5B265
:101A1000601EA842F6D8012E03D100200DF8040064
:101A200002E001200DF80400601CC4B204F038FA92
:101A300007466B4622460021384604F085FABDE889
:101A4000FC810000F090000070B50446002500BF46
:101A50001D480068012800D104E04FF489711BA0E3
:101A6000FEF7C9FC00BF00BFF02C00D804E040F234
:101A7000131116A0FEF7BFFC00BF13480830006822
:101A800020F0F00004F0F00108430F49083108602D
:101A900010E06D1C1548006AC0F30261144800682C
:101AA000C84044F62061B0FBF1F0A84202D26FF0CA
:101AB000070070BD04480830006800F0F000A04244
:101AC000E7D10020F5E70000000401402E2E5C4421
:101AD0007269766572735C7372635C686333325FDC
:101AE0006C6C5F65666D2E63000000000040054071
:101AF0000080FF1F10B5044600BF3CB14FF6FF70D9
:101B000020434FF6FF71884200D104E040F20A21E1
:101B100004A0FEF770FC00BF0B48806D20430A490B
:101B2000886510BD2E2E5C447269766572735C7395
:101B300072635C686333325F6C6C5F696E7465728C
:101B400072757074732E63000010054070B5044602
:101B50000D4600BF2CB1174820431649884200D1DA
:101B600003E0712114A0FEF746FC00BF00BF0DB1D9
:101B7000012D00D103E072210FA0FEF73CFC00BF55
:101B800000BF1548006900F0010000B103E07321B7
:101B900009A0FEF730FC00BF012D05D10E480068FA
:101BA000A0430D49086004E00B48006820430A493F
:101BB000086070BD11C5F38F2E2E5C447269766586
:101BC00072735C7372635C686333325F6C6C5F6604
:101BD00063672E63000000000080044070B5044677
:101BE0000D4600BF2CB1114820431049884200D156
:101BF00003E084210EA0FEF7FEFB00BF00BF0DB185
:101C0000012D00D103E0852109A0FEF7F4FB00BF00
:101C1000012D05D10E484068A0430D49486004E0FD
:101C20000B48406820430A49486070BD79FD0F0F9A
:101C30002E2E5C447269766572735C7372635C68A5
:101C40006333325F6C6C5F6663672E630000000075
:101C50000080044070B504460D4600BF2CB1114809
:101C600020431049884200D103E096210EA0FEF7E0
:101C7000C2FB00BF00BF0DB1012D00D103E09721D1
:101C800009A0FEF7B8FB00BF012D05D10E48806802
:101C9000A0430D49886004E00B48806820430A494E
:101CA000886070BDFF8707002E2E5C4472697665E0
:101CB00072735C7372635C686333325F6C6C5F6613
:101CC00063672E63000000000080044010B50446E6
:101CD00000BF24B144F00700072800D104E04FF40E
:101CE0008B7105A0FEF787FB00BF0B4800682043FF
:101CF0000949086010BD00002E2E5C4472697665AB
:101D000072735C7372635C686333325F6C6C5F66C2
:101D1000636D2E63000000002084044010B504466B
:101D200000BF0CB1012C00D104E04FF4B87103A046
:101D3000FEF761FB00BF0948046010BD2E2E5C4415
:101D40007269766572735C7372635C686333325F69
:101D50006C6C5F66636D2E630000000080819042B2
:101D600000200A4908600720084914310860002053
:101D700006490C390860091D08600449091D0860FE
:101D8000091D0860091D0860704700000C840440AC
:101D900010B5044600BF24B144F00700072800D165
:101DA00004E04FF4837106A0FEF725FB00BF0C484A
:101DB0000068204008B1012010BD0020FCE70000B1
:101DC0002E2E5C447269766572735C7372635C6814
:101DD0006333325F6C6C5F66636D2E6300000000DE
:101DE0001C84044070B5044600250CB9ED1ECBE000
:101DF00000BF6068B8B16068102814D060682028FF
:101E000011D0606830280ED0606840280BD0606820
:101E1000502808D06068602805D06068702802D01B
:101E20006068802800D103E0B62158A0FEF7E3FAED
:101E300000BF00BFA06840B1A068012805D0A0681D
:101E4000022802D0A068032800D103E0B7214FA0E8
:101E5000FEF7D1FA00BF00BFE06818B1E068B0F546
:101E6000004F00D103E0B82148A0FEF7C4FA00BF3C
:101E700000BF206938B12069B0F5805F03D02069C8
:101E8000B0F5005F00D103E0B92140A0FEF7B3FA3E
:101E900000BF00BF606958B16069B0F5807F07D0AE
:101EA0006069B0F5007F03D06069B0F5407F00D174
:101EB00003E0BA2135A0FEF79EFA00BF00BFA0697B
:101EC000D0B1A069802817D0A069882814D0A06953
:101ED000902811D0A06998280ED0A069A0280BD016
:101EE000A069A82808D0A069B02805D0A069B828A2
:101EF00002D0A069C02800D103E0BB2123A0FEF7D7
:101F00007AFA00BF00BFE06940B1E069012805D05E
:101F1000E069022802D0E069032800D103E0BC2177
:101F20001AA0FEF768FA00BF00BF206A10B1206A4D
:101F3000102800D103E0BD2114A0FEF75CFA00BF19
:101F400020881A4908606088091D0860D4E90101E9
:101F50000843164910310860D4E903010843616958
:101F60000843A1690843E169084310491431086036
:101F7000081D006820F0100094F8201001F01001F6
:101F800008430A4918310860284670BD2E2E5C446B
:101F90007269766572735C7372635C686333325F17
:101FA0006C6C5F66636D2E6300000000008404406B
:101FB0000146002009B9C01E0CE000220A804A80B8
:101FC0004A608A60CA600A614A6180228A6100228E
:101FD000CA610A627047000010B500200E490870FF
:101FE00000F016FB00200C49487000F00DFD0023A6
:101FF000FF221946184600F013FD08480649C1F8AB
:10200000280414210648FEF7CBF9FF2224210348B7
:10201000FEF7BFF910BD0000D09BFF1F10A0FF1FEF
:10202000FC9FFF1F10B50346002002B910BD11B977
:1020300004241470FAE700BF084C206800BF07E0D2
:1020400004889C4203D1002414700860EEE7006904
:102050000028F5D10224147000BFE7E73880FF1F85
:1020600038B504460020009001F065FD02F006FC42
:10207000012808D1224AD2F81014D2F80C046A467A
:10208000FFF79DF918E01E484078012814D11C4A3A
:10209000D2F81014D2F80C046A46FFF790F91848E9
:1020A000D0F80C041649D1F8101408441449C1F8AA
:1020B0000C040020C1F8100401F03DFD1048D0F8D8
:1020C00014040099884219D102F0D8FB012813D1D9
:1020D0000B49487001F22C4001F0C2FA012803D0EC
:1020E00000200749487007E00548D0F82C0418B1D3
:1020F0000349D1F82C048047012038BD0020FCE7BB
:10210000D09BFF1F2DE9F04F87B006464FF0000A25
:1021100000200690002404F0D5FF8346FEF76EF9F8
:10212000BBFBF0F50027A0460020059081460190FA
:10213000029003900490C54800680090C44840781D
:10214000012803D0002007B0BDE8F08F00203070D8
:10215000C048007820B101281DD0022874D15AE16E
:1021600000F0A5FABC4908700020BC490860BC49D1
:102170000860BC4908600120BB490870B84AB749EB
:10218000B548007801F086F9012803D100BFB149B4
:10219000087000BF56E1B048007801F005FA074624
:1021A000AF4252D84BE0AD4800684068AB4909687F
:1021B0000968A0EB010A01F0BEFCA849096808689B
:1021C000514601F09FF90446A148D0F83004F8B117
:1021D000A146A24800680068059015E001F0ABFC3C
:1021E0009B480121D0F83024059890479E490870FB
:1021F000A9F1010908460078012800D007E001F0A4
:1022000006F9059908440590B9F1000FE6D102E0FE
:1022100000209549087094480078012800D012E009
:102220009048006820448F4908608D480068401E2F
:102230008B490860894800680830884908608848E8
:1022400000680028AFD192E0F6E086E001F073FC70
:1022500005AA844801688048007801F01BFA01282B
:1022600003D000208049087080E07C480068006846
:10227000059988420CD879480068406805998842D9
:1022800006D97648006840680599A0EB010A03E08A
:1022900000207549087069E0704800680068059082
:1022A00070480068B0FBF5F105FB1100A5EB0008D4
:1022B0005146059801F026F90446AC4204D92C4653
:1022C00044450FD944460DE044450AD864480068A7
:1022D000401E634908606148006808305F49086033
:1022E00000E044465A48D0F83004D8B1A14615E081
:1022F00001F021FC56480121D0F830240598904780
:1023000059490870A9F1010908460078012800D050
:1023100007E001F07CF8059908440590B9F1000F39
:10232000E6D102E00020504908704F4800780128AB
:1023300000D01BE04B48006820444A49086008462A
:102340000068B0FBF5F105FB110030B945480068A5
:10235000B84202D20020307008E042480068B8421B
:1023600004D23F48006800287FF470AF00BF307887
:10237000A8B93D480078012811D13A480068B84210
:102380000DD2042002F06EFD3148D0F82404E8B3E9
:102390002F49C878D1F82424344990473AE032488C
:1023A0000078012812D12F480068B8420ED100BF32
:1023B00000BF01202E49487000BF00BF00200870F8
:1023C00000BF00BF0120887000BF0DE000BF00BF4C
:1023D00000202749487000BF00BF087000BF00BF41
:1023E0000120887000BF00BF00BF06AA202120483E
:1023F000FEF7EFFF00BF1E490698086200BF00BF4E
:1024000000201849086000BF022000E002E01149E6
:10241000087000BF16E001F08EFB00200F49086035
:102420000F4908600F4908600120307000BF00208C
:102430000849087000BF05E000BF0020054908708A
:1024400000BF00BF00BF084800787CE6D8900000BD
:10245000D09BFF1F5180FF1F5380FF1F5480FF1F21
:102460005880FF1F5C80FF1F5280FF1F094E000035
:1024700010A0FF1FF8B5074600250020009000249B
:10248000002661484078012801D00020F8BD0125D0
:1024900048E06A4620215D48FEF79BFF5B48006AE2
:1024A0000099884201D1012000E00020012801D0DC
:1024B00000253CE055484078012831D153488078C8
:1024C00001282DD101F037FB4F48D0F8340460B11A
:1024D0004D4A121D02EBC411121FD2F80404D2F8A7
:1024E000343480229847054600E00025012D15D19F
:1024F0004548D0F8080480384349C1F80804084624
:10250000D0F818048038C1F818040846D0F804043C
:102510008030C1F80404601CC4B203E0002506E06A
:10252000002504E03848D0F818048028B1D200BF54
:102530003548D0F8180400284DD0012D4BD1324831
:1025400090F8180400F00706F043401C00F007065E
:102550002D49D1F8181401EBC4122B49091D50184C
:10256000FF223146FDF715FF2748D0F81804304404
:102570002549C1F818040846D0F8340478B18C46CF
:10258000DCF8182401F1040C0CEBC411DFF878C05E
:10259000DCF80404DCF834349847054600E00025F4
:1025A000012D18D11848D0F808041749D1F818148B
:1025B000891B401A1449C1F808040846D0F80404DD
:1025C000D1F8181408441049C1F804040020C1F8D7
:1025D0001804601CC4B2012D12D100BF01200B49A8
:1025E000087000BF00BF6A4620210848FEF7F1FED0
:1025F00000BF06490098086200BF00BF012045E700
:1026000000F0B8F8002041E7D09BFF1F10A0FF1F8B
:102610001CB50020019000900024694601A800F03C
:1026200065FF0446012C05D1DDE90002811A104640
:10263000FDF7B6FE1CBD1CB50020019000900024E3
:10264000694601A800F052FF0446012C05D1DDE9DE
:102650000002811A1046FDF7A3FE1CBD014890F848
:102660001C047047D09BFF1F10B596B0002015903A
:10267000149000240190009014AA15A900F0EAFE1D
:102680006A4601A9012000F0E5FE24220BA8159955
:10269000FDF76DFE242202A80199FDF768FE02A94C
:1026A0000BA8FFF7F8F80446204616B010BD30B569
:1026B00097B00020169015900025149013900024D8
:1026C00015AA16A900F0C6FE13AA14A9012000F04D
:1026D000C1FE24220AA81699FDF749FE242201A86A
:1026E0001499FDF744FE01A90AA8FFF7D4F804469F
:1026F0000CB9012504E0012C01D1002500E00025E2
:10270000284617B030BD0000014890F81D047047FE
:10271000D09BFF1F0148C0697047000010A0FF1F39
:1027200010B500201049087008464078012804D1EF
:10273000FFF781FF00200C494870002000F06AF983
:102740000023FF221946184600F076F9074806498B
:10275000C1F8280414210648FDF722FEFF22242197
:102760000248FDF716FE10BDD09BFF1F10A0FF1FF3
:10277000FC9FFF1F10B500201049087008464078E4
:10278000012804D1FFF757FF00200C4948700020B2
:1027900000F040F90023FF221946184600F04CF9DA
:1027A00007480649C1F8280414210648FDF7F8FD3A
:1027B000FF2224210248FDF7ECFD10BDD09BFF1F36
:1027C00010A0FF1FFC9FFF1F07480078012808D1B9
:1027D00005484078012804D103488078012800D1B9
:1027E00070470020FCE7000010A0FF1F08B5002084
:1027F000009002F01BFA6A4620210648FEF7E9FD28
:102800000448006A0099884201D1012008BD0020D7
:10281000FCE7000010A0FF1F38B500240020009046
:10282000FFF772FF0446012C06D0022C0CD0032CBB
:1028300012D0042C45D117E0002000906846FFF725
:1028400061FC334988703DE0012000906846FFF745
:1028500011FE2F49887035E0012000906846FFF78F
:10286000FFFB2B4988702DE02A480078012800D111
:1028700000E00020012808D100BFFF202549087092
:1028800000BF012002F0EEFA1AE022480078022888
:1028900001D1012000E00020012811D100BFFF205C
:1028A0001C49087000BF00BF00201B49087000BF12
:1028B000FFF736FF0023FF221946184600F0B0F854
:1028C00000E000BF00BF9DF8000001281FD11048A4
:1028D000D0F8200448B144B10D4A9078D2F82014C1
:1028E000884700200A49C1F8200409488078012857
:1028F00007D0012C03D0022C01D0032C01D1FFF70B
:102900000FFF0023FF221946184600F089F838BD52
:10291000D09BFF1F5080FF1F5180FF1F2DE9F0410A
:1029200080460D4616463746012400BFFFF796FE47
:10293000012800D000243946284602F06DFB01280A
:1029400000D00024012C1FD11348407818B101F0A9
:1029500095FF01280FD101F091FF012804D13A46DB
:1029600029464046FDF703FD0023FF22194618467D
:1029700000F056F808E00023FF221946022000F07C
:102980004FF8012004498870012C01D0FFF7C8FEE0
:102990002046BDE8F0810000D09BFF1F044AC2F82A
:1029A0000404C2F80814C2F80C04C2F810147047EA
:1029B000D09BFF1FF8B505460C460026002000906E
:1029C000112C01D9112600E026460A49D1F8281415
:1029D000081D32462946FDF7CAFC00BF6A46202181
:1029E0000548FEF7F6FC00BF03490098086200BFE7
:1029F00000BFF8BDD09BFF1F10A0FF1F0149C1F809
:102A000014047047D09BFF1F014981F81C047047D4
:102A1000D09BFF1F014981F81C047047D09BFF1F0A
:102A200010B5044C84F81D04E270C4F82434C4F8D2
:102A3000201410BDD09BFF1F10B5044C84F81D045A
:102A4000E270C4F82434C4F8201410BDD09BFF1FDA
:102A50002DE9F04389B0002500260020089007905A
:102A6000069000240027059004908046814603903C
:102A70000290019000BF06AA20213B48FEF7A9FC66
:102A800000BF39490698086200BF00BFFFF70FFE7C
:102A90000646FFF7E9FD074607AA08A9304600F0F9
:102AA000B9FC0546012D5BD12F4C01AA02A903A850
:102AB00000F068FD04AA05A9384600F0CBFC012807
:102AC00024D1DDF8148098F80300401CE070E07811
:102AD000FF2801D10020E0700299089800EB01095D
:102AE00000BF2149D9F80000C8610198886100BF82
:102AF0000020069000BF06AA20211B48FEF769FCB3
:102B000000BF19490698086200BF00BF1748D0F8F7
:102B1000340420B31CB386B914480121D0F8302402
:102B2000880490470546114824222146D0F83434C1
:102B30004FF480209847054612E00C480121D0F858
:102B400030244FF4F82090470546084824222146B7
:102B5000D0F834344FF4F8209847054600E00025BB
:102B6000284609B0BDE8F08310A0FF1FD09BFF1FCF
:102B700010B501F017F800F039FE10BD70B506462B
:102B80000D46092E1AD006DC012E0BD0022E0BD0DA
:102B9000032E27D10DE00B2E15D00D2E18D00E2EA2
:102BA00020D11AE02C461EE0284600F047F80446E3
:102BB00019E0284600F04BF8044614E0284600F0DF
:102BC0005FF804460FE0284600F010F804460AE0DB
:102BD000284600F021F8044605E0284600F023F8D6
:102BE000044600E000BF00BF204670BD70B504463B
:102BF000204600F045F80546204600F01FF86840E2
:102C000070BD70B50446204600F031F805462046F8
:102C100000F024F8684070BD10B504462046FFF768
:102C2000F0FF604010BD70B504462046FFF7E9FF95
:102C30000546204600F002F8684070BD0146480095
:102C400000F4807212B1C0B280F01B00704710B562
:102C500004462046FFF7F2FF604010BD70B5044601
:102C60002046FFF7EBFF0546FFF7E8FF70BD70B5A4
:102C700004462046FFF7F2FF0546FFF7DFFF70BD71
:102C800010B504462046FFF7F2FF604010BD00007B
:102C90002DE9F04104460D46904600BF4CB1012C91
:102CA00007D0022C05D0032C03D0042C01D0052C16
:102CB00000D104E04FF4207117A0FDF79CFB00BF8A
:102CC00000BF15B1A8B200B104E040F2812112A00A
:102CD000FDF791FB00BF002718E005F0010080B16F
:102CE000154800EB841000EB8706B8F1010F04D102
:102CF000308840F40040308003E03088C0F30E009C
:102D000030806D1005B903E0781CC7B2102FE4D3F2
:102D100000BFBDE8F08100002E2E5C44726976652C
:102D200072735C7372635C686333325F6C6C5F6791
:102D300070696F2E63000000003C05402DE9F05FD4
:102D400005460E4614464FF0000B14B96FF0020B07
:102D5000D7E000BF6C48008800F0010000B103E03C
:102D6000FE216AA0FDF747FB00BF00BF4DB1012D5A
:102D700007D0022D05D0032D03D0042D01D0052D41
:102D800000D103E0FF2161A0FDF735FB00BF00BFCC
:102D900016B1B0B200B104E04FF480715BA0FDF752
:102DA0002AFB00BF00BF208810B12088012800D175
:102DB00004E040F2011155A0FDF71DFB00BF00BF6C
:102DC000608810B16088022800D104E04FF481715E
:102DD0004EA0FDF710FB00BF00BFA08810B1A08877
:102DE000042800D104E040F2031148A0FDF703FBE2
:102DF00000BF00BFE08828B1E088102802D0E0883A
:102E0000202800D104E04FF4827140A0FDF7F3FACE
:102E100000BF00BF208918B12089B0F5804F00D1D4
:102E200004E040F2051139A0FDF7E5FA00BF00BF4C
:102E3000608910B16089402800D104E04FF48371AB
:102E400032A0FDF7D8FA00BF00BFA08918B1A08951
:102E5000B0F5007F00D104E040F207112BA0FDF790
:102E6000CAFA00BF00BFE08918B1E089B0F5805F01
:102E700000D104E04FF4847124A0FDF7BCFA00BF38
:102E800000BF208A18B1208AB0F5004F00D104E0BD
:102E900040F209111DA0FDF7AEFA00BF00272DE09A
:102EA00006F0010028B3208861880843A188084300
:102EB000E188084361890843A1890843E1890843FF
:102EC000218940EA010A45F27728208A40EA0A0A65
:102ED00048F400480C48001D00EB851000EB870902
:102EE000B9F8000020EA08000AEA08010843A9F836
:102EF0000000761006B903E0781CC7B2102FCFD3BC
:102F000000BF5846BDE8F09FFC3B05402E2E5C44B8
:102F10007269766572735C7372635C686333325F87
:102F20006C6C5F6770696F2E6300000070B50446BB
:102F30000D4600BF4CB1012C07D0022C05D0032C4C
:102F400003D0042C01D0052C00D104E040F2FD1187
:102F50000CA0FDF750FA00BF00BF15B1A8B200B138
:102F600004E04FF4FF7107A0FDF745FA00BF0D49DB
:102F700001EB0410B0F80008284008B1012070BD32
:102F80000020FCE72E2E5C447269766572735C73D8
:102F900072635C686333325F6C6C5F6770696F2E5D
:102FA00063000000003005402DE9F04104460D4665
:102FB000164600BF4CB1012C07D0022C05D0032CC3
:102FC00003D0042C01D0052C00D104E040F27B1189
:102FD00024A0FDF710FA00BF00BF15B1A8B200B1E0
:102FE00004E04FF4BE711FA0FDF705FA00BF00BF5B
:102FF0000F2E03D9202E02D33B2E00D804E040F23E
:103000007D1118A0FDF7F7F900BF00BF1D4800882B
:1030100000F0010000B104E04FF4BF7111A0FDF712
:10302000EAF900BF002717E005F0010078B1154864
:10303000801D00EB841000EB8708B8F800004FF605
:10304000C071084006F03F010843A8F800006D1069
:1030500005B903E0781CC7B2102FE5D300BFBDE867
:10306000F08100002E2E5C447269766572735C7389
:1030700072635C686333325F6C6C5F6770696F2E7C
:1030800063000000FC3B054070B504460D4600BFE0
:103090004CB1012C07D0022C05D0032C03D0042CFA
:1030A00001D0052C00D104E040F237210BA0FDF740
:1030B000A2F900BF00BF15B1A8B200B104E04FF4FF
:1030C0000E7106A0FDF797F900BF0C48102101FB17
:1030D000040630882843308070BD00002E2E5C44EA
:1030E0007269766572735C7372635C686333325FB6
:1030F0006C6C5F6770696F2E6300000008380540D4
:1031000010B5044600BF44B1B4F5804F05D0B4F506
:10311000004F02D0B4F5404F00D104E040F2D91185
:103120000EA0FDF768F900BF00BF1448008800F04A
:10313000010000B104E04FF4ED7108A0FDF75BF968
:1031400000BF0E48001F0088C0F30D0004F440418A
:1031500008430A49091F088010BD00002E2E5C4458
:103160007269766572735C7372635C686333325F35
:103170006C6C5F6770696F2E63000000FC3B05405C
:103180000146002009B9C01E09E000220A804A80D9
:10319000CA800A820A814A818A81CA818A807047EC
:1031A000F8B506460C4615460020009005B9F8BD56
:1031B00014B904202870FAE72A4669463046FEF71B
:1031C00031FF287800B1F2E70098007A012815D184
:1031D000009880880099C988884208DD0098408856
:1031E00000998988401A0099C988084404E0009829
:1031F000C08800998988401A208009E00098007AE8
:10320000022803D100984088208001E0002020801F
:103210000020287000BFCAE7F8B506460C461546E0
:103220000020009005B9F8BD14B904202870FAE711
:103230002A4669463046FEF7F5FE287800B1F2E7E7
:103240000098007A012815D1009880880099C988D3
:10325000884205DD009880880099C988401A07E0F7
:10326000009840880099898808440099C988401AC4
:10327000208008E00098007A18B9009840882080E3
:1032800001E0002020800020287000BFCBE7F0B5CF
:1032900004461546002600220023082C09D308788E
:1032A0000127B7EB201F01D1012000E000200128F9
:1032B00001D00020F0BD48780F7807F00F0740EAF2
:1032C00007224AB9002305E01202981C085C024359
:1032D000581CC3B2042BF7DB082A01D2002600E0F9
:1032E0000126012E00D12A603046E3E730B50346BF
:1032F0000C4600250021012B07D92078001108B9C0
:10330000012000E00020012801D0002030BD082B62
:103310000CD8207800F00F01072907D831B1581ECA
:10332000884201D3012000E000200546012D00D194
:1033300011602846EAE7000001460A2008700148AB
:103340007047000004910000014880887047000029
:103350006880FF1F0148C088704700006880FF1F19
:103360001CB541F6FF740020019000906A4601A947
:1033700000F0A6F8012815D111E001980088C0F3EB
:103380000C0020B901988088C0F30C0008B100201F
:103390001CBD0098401E00900198083001900098D4
:1033A0000028EAD16A4601A9012000F089F8012825
:1033B00015D111E001980088C0F30C0020B90198E4
:1033C0008088C0F30C0008B10020E1E70098401E9F
:1033D000009001980830019000980028EAD101205F
:1033E000D6E72DE9F04105460C4600260027B046F9
:1033F00000F00DF800FB04F821462846FDF75EFAC0
:103400000746012F00D101263046BDE8F0814FF478
:103410000050704730B50346002053B90B4C246868
:103420000C600A4C6468094D2D68641B146001200F
:103430000BE0012B09D1064C24680C60044C646835
:10344000034D2D68641B1460012030BDF08700001F
:103450001088000030B50346002053B90B4C246897
:103460000C600A4C64680A4D2D68641B14600120CE
:103470000BE0012B09D1054CA4680C60034CE468F7
:10348000024DAD68641B1460012030BDFC87000054
:10349000F087000010B5034600202BB9064C0C60E5
:1034A00001241460012006E0012B04D1034C0C60C0
:1034B00001241460012010BDF08700001088000076
:1034C00010B5034600202BB9064C0C600124146093
:1034D000012006E0012B04D1034C0C600124146090
:1034E000012010BDF087000010880000024604484B
:1034F00000681060024840680860012070470000C2
:10350000E887000030B50346002041F6FF74002232
:10351000C3F30C02B1F5005F07D80A44B2F5005FAF
:1035200001D801200DE002200BE0480BC1F30C058F
:1035300005B1401C2AB15518C5F30C05954200D0C1
:10354000401C30BD30B50346002041F6FF74002218
:10355000C3F30C02B1F5005F07D80A44B2F5005F6F
:1035600001D801200DE002200BE0480BC1F30C054F
:1035700005B1401C2AB15518C5F30C05954200D081
:10358000401C30BD70B504460D46164600F063F889
:10359000207000F007F8286000F002F8306070BD7D
:1035A00004207047042070472DE9FC4106460025A1
:1035B000002001900090002700246A4601A93046AF
:1035C000FFF77EFF012815D100BF10E0019800EB46
:1035D000C4004068019951F83410471A019901EB71
:1035E000C40148683946FFF7ADFF0544641C0098E4
:1035F0008442EBD32846BDE8FC812DE9FC41064618
:103600000025002001900090002700246A4601A9AF
:103610003046FFF755FF012815D100BF10E0019893
:1036200000EBC4004068019951F83410471A019921
:1036300001EBC40148683946FFF784FF0544641C68
:1036400000988442EBD32846BDE8FC8110B5FDF715
:103650005BF9012010BD0020704703460120704730
:103660000146002051B1064A0A60064A4A60064AED
:103670008A60064ACA60064A0A6101207047000053
:103680004D360000E33300002D3700005B360000AC
:10369000FB0300002DE9FE4F82460E4690464FF098
:1036A000000900200290019083460024002741F683
:1036B000FF700090002501AA02A95046FFF700FF05
:1036C00001282FD15046FFF798FF83465E4527D249
:1036D00000BF21E0029830F83400C0F30C0505B1BA
:1036E0007F1C029850F83400451B09E0B74204D112
:1036F000C8F800504FF0010908E005F500557F1C9F
:10370000029800EBC4004068A842EFD800BFB9F1AE
:10371000010F00D103E0641C01988442DAD301E078
:103720004FF000094846BDE8FE8F00002DE9FC4738
:103730008046894614464FF0000A082729A103C98C
:10374000CDE9000100260025781E204000283ED04B
:10375000BC4227D9781E2040261AB2B249464046BC
:10376000FDF730F9012801D1824601E04FF0000A4F
:10377000BAF1010F33D1002506E0701919F80000E5
:103780000DF80500681CC5B2781E2040A842F4D888
:1037900008EB060008226946FDF714F901281ED13E
:1037A00082461CE0002506E0701919F800000DF8AB
:1037B0000500681CC5B2A542F6D308EB0600082236
:1037C0006946FDF7FFF8012809D1824607E0A2B259
:1037D00049464046FDF7F6F8012800D1824650469A
:1037E000BDE8FC87FFFFFFFFFFFFFFFF1FB50020C5
:1037F00000900190029003900024114840680190CD
:103800000F48007C00900098C8B1019801F08AF838
:10381000012814D100BF06E009480830015D02A864
:103820000155601CC4B20098A042F5D802AADDE997
:10383000001000F025F8012801D000BFFEE71FBDF1
:103840009C82FF1F10B5FDF78FF810BD10B500F07A
:1038500033F810BD2DE9FE430746884614461D4641
:1038600000266A464146384600F034F80646012EE6
:1038700003D100982060019828603046BDE8FE839F
:103880002DE9F04104460D461646002732462946EA
:10389000204600F017F907463846BDE8F08110B51C
:1038A00000F04EF910BD10B500F07EF810BD10B557
:1038B00000F0D8F810BD000010B50548006828B128
:1038C00003480068804700200149086010BD0000DF
:1038D0003480FF1F2DE9F04186B004460D461646A0
:1038E0000027002005904FF00C0804AA05A97420B9
:1038F000FFF756FC9DF8100078BBBDF814000C28AB
:103900002BD904A805AB01AA0C210090742001F06A
:1039100021F99DF8100020B9BDF814000C2800D141
:103920000127012F19D104A8A1B205AB2A460090A6
:10393000742001F00FF99DF8100070B9BDF8140063
:10394000A0420AD10298A04207D800BF01A807C828
:1039500086E80700034903980860384606B0BDE8CA
:10396000F08100003480FF1F01484068704700006C
:1039700054850000014880687047000054850000AD
:103980000148C068704700005485000001460020CF
:10399000044A92688A4203D0024A52688A4200D19D
:1039A000012070475485000070B586B000240A26B7
:1039B0001422254901A8FCF7DAFC002523480078E9
:1039C000092810D022480DF10D0203A9836A02A82C
:1039D0009847012807D10298FFF7D8FF012802D1A4
:1039E00000208DF804001FE01A4810F83400174931
:1039F000097888420CD1174800EBC400406838B100
:103A0000144800EBC4001149426801A890470546DC
:103A1000062D08D025B100BF00200C49087000BF5A
:103A2000601CC4B200E000240A2CDDDB00BF0120D2
:103A30008DF8040000208DF80C00029000BF02F009
:103A400077FD06B070BD0000D48500004080FF1FE8
:103A5000548500008485000001490860704700001B
:103A60003080FF1F1448408820B113484088401E12
:103A7000114948801048808820B10F488088401E36
:103A80000D4988800D48408820B10C484088401E70
:103A90000A4948800948808820B108488088401E2B
:103AA000064988800648006820B105480068401E25
:103AB00003490860704700000093FF1F1097FF1F25
:103AC0004880FF1FF0B595B005460C46164600200D
:103AD00014900827082C01D915B0F0BD13AA14A919
:103AE0007220FFF799FB9DF84C00F0B904F1080033
:103AF000BDF85010884218D80295019413AB0822E3
:103B000001A9722004F0B5F99DF84C0008B100201D
:103B1000E2E7019882B213AB3146722004F0A9F9B2
:103B20009DF84C0008B10020D6E70120D4E710B57D
:103B300004F0A4F810BD10B5FCF757FC10BD000050
:103B400008B5174801F090F86A4652214FF480609A
:103B5000FCF7D6FD9DF8000008B100BFFEE76A46FD
:103B600054213220FCF7CCFD9DF8000008B100BFC5
:103B7000FEE76A4672214FF49670FCF7C1FD9DF88E
:103B8000000008B100BFFEE76A4674216420FCF71C
:103B9000B7FD9DF8000008B100BFFEE708BD0000BA
:103BA000712B000010B5024804F04AF810BD000067
:103BB0009C82FF1F2DE9F04704460F4615461E461E
:103BC000DDF820A04FF000086FF002090D480068F2
:103BD000A04202D00020BDE8F087224639462846A0
:103BE00003F032FD814607488660B9F1000F04D129
:103BF000FDF7FAFB4FF0010801E04FF000084046E6
:103C0000E9E700002480FF1F70B504460D46ACB301
:103C1000204600F03BF8B4F90200002807DB00F072
:103C20001F0201219140164A430942F8231000BFA8
:103C3000B4F902002946002804DB0A07130E114AD2
:103C4000135406E00A07160E0F4A00F00F031B1F5D
:103C5000D65400BFB4F9020000280DDB00BF00BF3E
:103C600000F01F02012191404209920002F1E0227E
:103C7000C2F8001100BF00BF00BF00BF70BD000050
:103C800080E200E000E400E018ED00E070B50446DA
:103C900000260CB9F61E4BE000BF2088B0F5007F6F
:103CA00000DA03E0CB2123A0FCF7A5FB00BF2088AE
:103CB000400900EB4000202101EB4000B4F9021064
:103CC00088420AD82088400900EB4000252101EBFA
:103CD0004000B4F90210884206D2B4F9020020284C
:103CE00002D36FF0020623E060881B49042212FB16
:103CF00000152868C0F3080040F2FF11884208D17F
:103D000020882860B4F90210144A606842F8210043
:103D10000EE020882968C1F30801884206D1B4F971
:103D200002100E4A606842F8210001E06FF00106BF
:103D3000304670BD2E2E5C447269766572735C737A
:103D400072635C686333325F6C6C5F696E7465725A
:103D500072757074732E63005C1005409080FF1FB5
:103D600010B5034908688047BFF34F8F10BD0000AE
:103D70009080FF1F10B5034948688047BFF34F8FFD
:103D800010BD00009080FF1F10B503498868804770
:103D9000BFF34F8F10BD00009080FF1F10B5034987
:103DA000C8688047BFF34F8F10BD00009080FF1F91
:103DB00010B5034908698047BFF34F8F10BD00005D
:103DC0009080FF1F10B5034948698047BFF34F8FAC
:103DD00010BD00009080FF1F10B50349886980471F
:103DE000BFF34F8F10BD00009080FF1F10B5034937
:103DF000C8698047BFF34F8F10BD00009080FF1F40
:103E000010B50349086A8047BFF34F8F10BD00000B
:103E10009080FF1F10B50349486A8047BFF34F8F5A
:103E200010BD00009080FF1F10B50349886A8047CD
:103E3000BFF34F8F10BD00009080FF1F10B50349E6
:103E4000C86A8047BFF34F8F10BD00009080FF1FEE
:103E500010B50349086B8047BFF34F8F10BD0000BA
:103E60009080FF1F10B50349486B8047BFF34F8F09
:103E700010BD00009080FF1F10B50349886B80477C
:103E8000BFF34F8F10BD00009080FF1F10B5034996
:103E9000C86B8047BFF34F8F10BD00009080FF1F9D
:103EA00010B50349086C8047BFF34F8F10BD000069
:103EB0009080FF1F10B50349486C8047BFF34F8FB8
:103EC00010BD00009080FF1F10B50349886C80472B
:103ED000BFF34F8F10BD00009080FF1F10B5034946
:103EE000C86C8047BFF34F8F10BD00009080FF1F4C
:103EF00010B50349086D8047BFF34F8F10BD000018
:103F00009080FF1F10B50349486D8047BFF34F8F66
:103F100010BD00009080FF1F10B50349886D8047D9
:103F2000BFF34F8F10BD00009080FF1F10B50349F5
:103F3000C86D8047BFF34F8F10BD00009080FF1FFA
:103F400010B50349086E8047BFF34F8F10BD0000C6
:103F50009080FF1F10B50349486E8047BFF34F8F15
:103F600010BD00009080FF1F10B50349886E804788
:103F7000BFF34F8F10BD00009080FF1F10B50349A5
:103F8000C86E8047BFF34F8F10BD00009080FF1FA9
:103F900010B50349086F8047BFF34F8F10BD000075
:103FA0009080FF1F10B50349486F8047BFF34F8FC4
:103FB00010BD00009080FF1F10B50349886F804737
:103FC000BFF34F8F10BD00009080FF1F10B5034955
:103FD000C86F8047BFF34F8F10BD00009080FF1F58
:103FE00010B50349D1F880008047BFF34F8F10BD53
:103FF0009080FF1F10B50349D1F884008047BFF3BC
:104000004F8F10BD9080FF1F10B50349D1F8880075
:104010008047BFF34F8F10BD9080FF1F10B503493D
:10402000D1F88C008047BFF34F8F10BD9080FF1FE9
:1040300010B50349D1F890008047BFF34F8F10BDF2
:104040009080FF1F10B50349D1F894008047BFF35B
:104050004F8F10BD9080FF1F10B50349D1F8980015
:104060008047BFF34F8F10BD9080FF1F10B50349ED
:10407000D1F89C008047BFF34F8F10BD9080FF1F89
:1040800010B50349D1F8A0008047BFF34F8F10BD92
:104090009080FF1F10B50349D1F8A4008047BFF3FB
:1040A0004F8F10BD9080FF1F10B50349D1F8A800B5
:1040B0008047BFF34F8F10BD9080FF1F10B503499D
:1040C000D1F8AC008047BFF34F8F10BD9080FF1F29
:1040D00010B50349D1F8B0008047BFF34F8F10BD32
:1040E0009080FF1F10B50349D1F8B4008047BFF39B
:1040F0004F8F10BD9080FF1F10B50349D1F8B80055
:104100008047BFF34F8F10BD9080FF1F10B503494C
:10411000D1F8BC008047BFF34F8F10BD9080FF1FC8
:1041200010B50349D1F8C0008047BFF34F8F10BDD1
:104130009080FF1F10B50349D1F8C4008047BFF33A
:104140004F8F10BD9080FF1F10B50349D1F8C800F4
:104150008047BFF34F8F10BD9080FF1F10B50349FC
:10416000D1F8CC008047BFF34F8F10BD9080FF1F68
:1041700010B50349D1F8D0008047BFF34F8F10BD71
:104180009080FF1F10B50349D1F8D4008047BFF3DA
:104190004F8F10BD9080FF1F10B50349D1F8D80094
:1041A0008047BFF34F8F10BD9080FF1F10B50349AC
:1041B000D1F8DC008047BFF34F8F10BD9080FF1F08
:1041C00010B50349D1F8E0008047BFF34F8F10BD11
:1041D0009080FF1F10B50349D1F8E4008047BFF37A
:1041E0004F8F10BD9080FF1F10B50349D1F8E80034
:1041F0008047BFF34F8F10BD9080FF1F10B503495C
:10420000D1F8EC008047BFF34F8F10BD9080FF1FA7
:1042100010B50349D1F8F0008047BFF34F8F10BDB0
:104220009080FF1F10B50349D1F8F4008047BFF319
:104230004F8F10BD9080FF1F10B50349D1F8F800D3
:104240008047BFF34F8F10BD9080FF1F10B503490B
:10425000D1F8FC008047BFF34F8F10BD9080FF1F47
:1042600010B50349D1F800018047BFF34F8F10BD4F
:104270009080FF1F10B50349D1F804018047BFF3B8
:104280004F8F10BD9080FF1F10B50349D1F8080172
:104290008047BFF34F8F10BD9080FF1F10B50349BB
:1042A000D1F80C018047BFF34F8F10BD9080FF1FE6
:1042B00010B50349D1F810018047BFF34F8F10BDEF
:1042C0009080FF1F10B50349D1F814018047BFF358
:1042D0004F8F10BD9080FF1F10B50349D1F8180112
:1042E0008047BFF34F8F10BD9080FF1F10B503496B
:1042F000D1F81C018047BFF34F8F10BD9080FF1F86
:1043000010B50349D1F820018047BFF34F8F10BD8E
:104310009080FF1F10B50349D1F824018047BFF3F7
:104320004F8F10BD9080FF1F10B50349D1F82801B1
:104330008047BFF34F8F10BD9080FF1F10B503491A
:10434000D1F82C018047BFF34F8F10BD9080FF1F25
:1043500010B50349D1F830018047BFF34F8F10BD2E
:104360009080FF1F10B50349D1F834018047BFF397
:104370004F8F10BD9080FF1F10B50349D1F8380151
:104380008047BFF34F8F10BD9080FF1F10B50349CA
:10439000D1F83C018047BFF34F8F10BD9080FF1FC5
:1043A00010B50349D1F840018047BFF34F8F10BDCE
:1043B0009080FF1F10B50349D1F844018047BFF337
:1043C0004F8F10BD9080FF1F10B50349D1F84801F1
:1043D0008047BFF34F8F10BD9080FF1F10B503497A
:1043E000D1F84C018047BFF34F8F10BD9080FF1F65
:1043F00010B50349D1F850018047BFF34F8F10BD6E
:104400009080FF1F10B50349D1F854018047BFF3D6
:104410004F8F10BD9080FF1F10B50349D1F8580190
:104420008047BFF34F8F10BD9080FF1F10B5034929
:10443000D1F85C018047BFF34F8F10BD9080FF1F04
:1044400010B50349D1F860018047BFF34F8F10BD0D
:104450009080FF1F10B50349D1F864018047BFF376
:104460004F8F10BD9080FF1F10B50349D1F8680130
:104470008047BFF34F8F10BD9080FF1F10B50349D9
:10448000D1F86C018047BFF34F8F10BD9080FF1FA4
:1044900010B50349D1F870018047BFF34F8F10BDAD
:1044A0009080FF1F10B50349D1F874018047BFF316
:1044B0004F8F10BD9080FF1F10B50349D1F87801D0
:1044C0008047BFF34F8F10BD9080FF1F10B5034989
:1044D000D1F87C018047BFF34F8F10BD9080FF1F44
:1044E00010B50349D1F880018047BFF34F8F10BD4D
:1044F0009080FF1F10B50349D1F884018047BFF3B6
:104500004F8F10BD9080FF1F10B50349D1F888016F
:104510008047BFF34F8F10BD9080FF1F10B5034938
:10452000D1F88C018047BFF34F8F10BD9080FF1FE3
:1045300010B50349D1F890018047BFF34F8F10BDEC
:104540009080FF1F10B50349D1F894018047BFF355
:104550004F8F10BD9080FF1F10B50349D1F898010F
:104560008047BFF34F8F10BD9080FF1F10B50349E8
:10457000D1F89C018047BFF34F8F10BD9080FF1F83
:1045800010B50349D1F8A0018047BFF34F8F10BD8C
:104590009080FF1F10B50349D1F8A4018047BFF3F5
:1045A0004F8F10BD9080FF1F10B50349D1F8A801AF
:1045B0008047BFF34F8F10BD9080FF1F10B5034998
:1045C000D1F8AC018047BFF34F8F10BD9080FF1F23
:1045D00010B50349D1F8B0018047BFF34F8F10BD2C
:1045E0009080FF1F10B50349D1F8B4018047BFF395
:1045F0004F8F10BD9080FF1F10B50349D1F8B8014F
:104600008047BFF34F8F10BD9080FF1F10B5034947
:10461000D1F8BC018047BFF34F8F10BD9080FF1FC2
:1046200010B50349D1F8C0018047BFF34F8F10BDCB
:104630009080FF1F10B50349D1F8C4018047BFF334
:104640004F8F10BD9080FF1F10B50349D1F8C801EE
:104650008047BFF34F8F10BD9080FF1F10B50349F7
:10466000D1F8CC018047BFF34F8F10BD9080FF1F62
:1046700010B50349D1F8D0018047BFF34F8F10BD6B
:104680009080FF1F10B50349D1F8D4018047BFF3D4
:104690004F8F10BD9080FF1F10B50349D1F8D8018E
:1046A0008047BFF34F8F10BD9080FF1F10B50349A7
:1046B000D1F8DC018047BFF34F8F10BD9080FF1F02
:1046C00010B50349D1F8E0018047BFF34F8F10BD0B
:1046D0009080FF1F10B50349D1F8E4018047BFF374
:1046E0004F8F10BD9080FF1F10B50349D1F8E8012E
:1046F0008047BFF34F8F10BD9080FF1F10B5034957
:10470000D1F8EC018047BFF34F8F10BD9080FF1FA1
:1047100010B50349D1F8F0018047BFF34F8F10BDAA
:104720009080FF1F10B50349D1F8F4018047BFF313
:104730004F8F10BD9080FF1F10B50349D1F8F801CD
:104740008047BFF34F8F10BD9080FF1F10B5034906
:10475000D1F8FC018047BFF34F8F10BD9080FF1F41
:1047600010B504462146022000F002F810BD0000FA
:1047700070B503460A4600210024002523B1012B11
:1047800005D0022B09D105E0104D042407E0104D9F
:10479000042404E00F4D042401E0002070BD00BF9C
:1047A00015B15068A04201D20020F7E709E002F1FC
:1047B0000800405C6E5CB04201D00020EEE7481C6F
:1047C000C1B2A142F3DB0120E8E70000EC90000059
:1047D000F0900000F490000010B50446214601203E
:1047E000FFF7C6FF10BD0000002004490978012929
:1047F00001D1012000E00020704700006880FF1F09
:1048000001460020054A52780A40044B5B789A42E0
:1048100001D1012000E00020704700006880FF1FE8
:1048200001460020054A92780A40044B9B789A4240
:1048300001D1012000E00020704700006880FF1FC8
:1048400001460020054A12780A40044B1B789A4220
:1048500001D1012000E00020704700006880FF1FA8
:1048600001460120704701460120704710B50446FB
:1048700021460020FFF77CFF10BD00001CB5002082
:10488000019000900024694601A8FEF72FFE04461F
:104890000A48D0F80404019988420CD30748D0F89C
:1048A00004040649D1F8081408440099884202D249
:1048B000012C00D100E0002420461CBDD09BFF1F2E
:1048C0002DE9FF4107460D461646002400200090C2
:1048D0000190029003906A463146384602F0A0FBF0
:1048E0000AE01DF80400295D884203D0002004B0CE
:1048F000BDE8F081601CC4B2102CF2D30120F6E7B1
:1049000010B50024FCF72CF9012807D104484078A1
:10491000034989680978884200D10124204610BDE6
:10492000549100000246002108E0064850F831008A
:10493000904201D101207047481CC1B20229F4DB2A
:104940000020F8E74085000001480078704700002B
:104950007C80FF1F00200349898809B9012000E0FD
:10496000002070476880FF1F10B502460021002319
:1049700003235068984201D2002010BD0AE002F1E2
:104980000800405C054C645CA04201D00020F4E7C4
:10499000481CC1B29942F2DB0120EEE7F89000001A
:1049A00010B5044604F0010048B100BF40F22310E6
:1049B0001A49086043F21020086000BF00BF04F0ED
:1049C000020028B100BF16481649086100BF00BFA9
:1049D00004F0040030B100BF4AF2015012490880CF
:1049E00000BF00BF04F0100018B14AF2085000F0F8
:1049F000A5F804F0400018B14AF2035000F09EF808
:104A000004F0800040B100BF7720084908600749E2
:104A10000831086000BF00BF10BD00000004014065
:104A20000100A5A500800440FC3B054004080540AA
:104A300010B5044604F0010028B100BF0020194958
:104A4000086000BF00BF04F0020028B100BF164894
:104A50001649086100BF00BF04F0040030B100BF78
:104A60004FF425401249088000BF00BF04F0100039
:104A700018B14AF2085000F053F804F0400018B1A1
:104A80004AF2035000F04CF804F0800040B100BF3F
:104A900076200849086007490831086000BF00BF58
:104AA00010BD0000000401400000A5A500800440E6
:104AB000FC3B05400408054010B500BF0F480088C6
:104AC00000F00200022800D104E040F267410CA08F
:104AD000FBF791FC00BF0948001D007800F0C00002
:104AE00040F00F000549091D0870102003491131DD
:104AF00008701E20FCF72EFE002010BDFE4305406E
:104B00002E2E5C447269766572735C7372635C68A6
:104B10006333325F6C6C5F7077632E63000000005C
:104B200004490988814341F42541034AA2F8FE1350
:104B300070470000FE4305400040054003490988D6
:104B40000143034AA2F8FE1370470000FE430540EC
:104B5000004005402DE9FC4781460D4616461F469C
:104B60000A9C00200190804600900CB9BDE8FC87AB
:104B70000EB107B115B904202070F7E72246694647
:104B80004846FEF70DFB207800B1EFE7224601A969
:104B90004846FDF747FA207800B1E7E7BDF8000086
:104BA000A84201DD284601E0BDF800000090BDF8F4
:104BB000000038804FF0000820E00198C06801999B
:104BC0008988405C06F8080000BF00BF0198808813
:104BD000401C019988800198808801994988884201
:104BE00006DB0198808801994988401A01998880DC
:104BF00000BF00BF08F101001FFA80F8BDF80000F7
:104C00008045DADB00BF0198C08801998988884215
:104C100003D100200199087202E001200199087275
:104C200000BF0020207000BFA0E700007CB500247A
:104C30000020019000900025FDF716FD04466A460D
:104C400001A92046FEF706FC05460098242808D353
:104C5000012D06D100BF242202480199FBF787FBF2
:104C600000BF7CBD10A0FF1F014908607047000015
:104C70001080FF1F2DE9F04106460C460025012754
:104C800060680B2805D2002730782246132100F0F7
:104C90005DFA012F2DD100202F49086000250FE07B
:104CA0002D48006800022C4908600846006804F19D
:104CB0000801EA1C895C084327490860681CC5B2E2
:104CC000042DEDD300202449486000250FE0224840
:104CD00040680002204948600846406804F1080125
:104CE000EA1D895C08431C494860681CC5B2042D54
:104CF000EDD319490868FFF7B3FD012805D116491E
:104D00004868FFF7B0FD012807D0012F05D13078A2
:104D10002246312100F01AFA0027012F14D1012078
:104D2000FDF772FE0C4A51681068FDF737FE3078C7
:104D300040302072102161728221A17203206060D4
:104D400001200649087004E0FDF7EAFC0020FDF7A9
:104D50005BFEBDE8F08100007080FF1F7880FF1FC0
:104D600070B5ADF5826D05460C4640F20C4101A8C8
:104D7000FBF716FB01F094F8019001AA7821284670
:104D800000F0E4F90748CDF80C040748046003ABD1
:104D9000DDE90102DDF80C1401F0D6F80DF5826DA5
:104DA00070BD0000AD4D00008480FF1F10B50446AB
:104DB0000CB900F049F80548006830B120460349B5
:104DC0000968884700200149086010BD8480FF1FE2
:104DD00070B505460C460126FDF740FC022805D0BB
:104DE000002628782246242100F0B0F9012E08D1AF
:104DF0000320FDF709FE2878403020720120606012
:104E000001E0FDF78DFC70BD20B900BF0121044A0F
:104E1000117004E000BF0221014A117000BF704709
:104E20005080FF1F70B505460C46FDF7F1FB00F002
:104E300071F90448C4F8080428782246782100F063
:104E400085F970BDD11900000448808803490978AC
:104E500090FBF1F00249888070470000FC90000050
:104E60006880FF1F014981F81D047047D09BFF1F18
:104E70002DE9F04105460C4600270026FFF7E4FF28
:104E80002046FFF7F3FC012808D128782246782134
:104E900000F05CF91B48C4F8080431E02046FFF735
:104EA0009BFC01280FD1267B607B40EA062630461A
:104EB000FDF7A4FD28782246782100F047F9124832
:104EC000C4F808041CE02046FFF74AFC012812D170
:104ED000FDF7BEFDFCF71BFD0746012F05D1287825
:104EE00040302072042060600AE0287822461221B7
:104EF00000F02CF904E028782246122100F026F96F
:104F0000BDE8F0814D190000311900002DE9F0478E
:104F100004460F4690464FF0000900BF24B144F00C
:104F20000F000F2800D103E0AB2126A0FBF763FAA6
:104F300000BF00BF072F00D803E0AC2121A0FBF782
:104F40005AFA00BF00BFB8F1070F00D803E0AD2147
:104F50001CA0FBF750FA00BF00BF2248006877286A
:104F600000D103E0AE2117A0FBF745FA00BF24E013
:104F700004F00100E0B14FEAC960050E281DC6B279
:104F800007FA06F008FA05F108430721B1400722A5
:104F9000AA40114308400721B1400722AA4011430B
:104FA000104A121F12688A4310430E49091F0860F5
:104FB000640809F1010000F0FF09002CD8D1BDE818
:104FC000F08700002E2E5C447269766572735C7304
:104FD00072635C686333325F6C6C5F7372616D2EF9
:104FE000630000000408054010B5044600F051FFBE
:104FF000A04203D10120074948700AE000F042FFB7
:10500000A04203D102200349487002E00020014978
:10501000487010BD6880FF1F70B505460C46B4F59A
:10502000806F01D9002070BD224629460448FBF755
:105030009EF90348001FC0F818440120F3E7000060
:10504000D49BFF1F2DE9F04105460C4600260027A2
:10505000667A012E02D0022E35D118E02878403031
:1050600020721B49102001F0EDFF0746012F08D1E7
:105070001022174904F10A00FBF779F91220606049
:1050800004E028782246352100F060F81CE0102268
:105090000F4904F10A00FFF713FC01280DD128780D
:1050A0004030207202206060012210210848FBF786
:1050B00070F9032000F052F804E0287822463521E8
:1050C00000F044F800E000BF00BFBDE8F081000040
:1050D00034A0FF1F00B585B000200290019001AB05
:1050E00002AA03A90820FEF7B5FB012808D1002079
:1050F00000900198C1B2034B03AA0298FEF75AFD33
:1051000005B000BD4D38000001490870704700002F
:105110006880FF1F10B50024054880780449C968DD
:105120000870FBF7F1FC044601484068C48110BDDB
:105130005491000018B10121034A117002E00021CE
:10514000014A1170704700007C80FF1F7F2313729B
:1051500050729172032353607047000001498870B8
:10516000704700006880FF1F7FB505460C4600268B
:10517000B84800680390B74840680290B548806816
:105180000190B448C068009000BF04F0E060E8B14E
:1051900004F0E060B0F1807F18D004F0E060B0F17E
:1051A000007F13D004F0E060B0F1407F0ED004F037
:1051B000E060B0F1806F09D004F0E060B0F1A06F62
:1051C00004D004F0E060B0F1C06F00D104E040F220
:1051D000AE21A1A0FBF70FF900BF00BF04F07000E3
:1051E000B8B104F07000102813D004F0700020282B
:1051F0000FD004F0700030280BD004F0700040286D
:1052000007D004F07000502803D004F0700060282C
:1052100000D104E040F2AF218FA0FBF7ECF800BF13
:1052200000BF04F4E020E8B104F4E020B0F5803FD2
:1052300018D004F4E020B0F5003F13D004F4E020CF
:10524000B0F5403F0ED004F4E020B0F5802F09D037
:1052500004F4E020B0F5A02F04D004F4E020B0F571
:10526000C02F00D104E04FF42C717BA0FBF7C3F8F2
:1052700000BF00BF04F4E000E8B104F4E000B0F5C2
:10528000801F18D004F4E000B0F5001F13D004F420
:10529000E000B0F5401F0ED004F4E000B0F5800F40
:1052A00009D004F4E000B0F5A00F04D004F4E0004D
:1052B000B0F5C00F00D104E040F2B12166A0FBF7C9
:1052C0009AF800BF00BF04F00700B8B104F007006F
:1052D000012813D004F0070002280FD004F00700C3
:1052E00003280BD004F00700042807D004F00700BF
:1052F000052803D004F00700062800D104E040F29E
:10530000B22155A0FBF777F800BF00BF04F4E060BE
:10531000E8B104F4E060B0F5807F18D004F4E060F8
:10532000B0F5007F13D004F4E060B0F5407F0ED0FC
:1053300004F4E060B0F5806F09D004F4E060B0F5EB
:10534000A06F04D004F4E060B0F5C06F00D104E0B9
:1053500040F2B32140A0FBF74EF800BF00BF04F4B9
:10536000E040E8B104F4E040B0F5805F18D004F408
:10537000E040B0F5005F13D004F4E040B0F5405FCA
:105380000ED004F4E040B0F5804F09D004F4E040C2
:10539000B0F5A04F04D004F4E040B0F5C04F00D108
:1053A00004E04FF42D712CA0FBF725F800BF00BFDF
:1053B0003148284000B104E040F2B52126A0FBF7B7
:1053C0001AF800BF00BF2D48008800F0010000B1AE
:1053D00004E040F2B62120A0FBF70DF800BF2848FA
:1053E000007800F00700052817D1012600BF1948F2
:1053F000006900F0010000B104E040F2BD2116A0F8
:10540000FAF7F9FF00BF1F4812490860C012486050
:105410008860C8601E20FCF79DF919482638006A8C
:10542000A84304EA050108431549263908621E20ED
:10543000FCF790F9012E0BD10649039808600298F9
:105440004860019888600098C8601E20FCF782F9C7
:105450007FBD0000008004402E2E5C44726976659A
:1054600072735C7372635C686333325F6C6C5F632E
:105470006C6B2E630000000077777707FE430540D2
:1054800026400540EEFAFFFF7FB504460025304870
:10549000006803902E48406802902D488068019073
:1054A0002B48C068009000BF4CB1012C07D0022CE3
:1054B00005D0032C03D0042C01D0052C00D104E02E
:1054C0004FF4117123A0FAF796FF00BF00BF2948DF
:1054D000008800F0010000B104E040F245211DA069
:1054E000FAF789FF00BF2448007800F0070005287C
:1054F00001D0052C17D1012500BF1548006900F027
:10550000010000B104E040F24D2112A0FAF773FF50
:1055100000BF1A480E490860C01248608860C86021
:105520001E20FCF717F9144804701E20FCF712F92E
:10553000012D0BD106490398086002984860019834
:1055400088600098C8601E20FCF704F97FBD000049
:10555000008004402E2E5C447269766572735C7321
:1055600072635C686333325F6C6C5F636C6B2E6379
:1055700000000000FE43054026400540EEFAFFFF14
:105580002DE9F34F2DED088B8BB08A468A4B0FCB5C
:1055900003AC0FC44FF0FF30029000BF874913984F
:1055A00088420BD086491398884207D085491398C2
:1055B000884203D084491398884200D104E040F225
:1055C000EB1182A0FAF717FF00BFDAF80040DAF813
:1055D0000470002C7DD0002FFCD01398406900F49B
:1055E000600500BF5DB1B5F5001F08D0B5F5C00F6F
:1055F00005D0B5F5200F02D0B5F5400F00D104E07D
:1056000040F2F11171A0FAF7F6FE00BF680D03A990
:1056100031F8105007FB05F04000B4FBF0F0461ED7
:10562000FF2E7ED8CAF8086007FB05F04000B4FBE7
:10563000F0F100FB11400790079830B99FED6B0A1D
:105640008AED040A002002906BE00220A0FB051204
:1056500000204FF0010C16EB0C0C40EB0003A1FBFB
:105660000C0E02FB0CE201FB03220021A0FB0783CE
:1056700002FB073200FB01294FF480710022A8FBD6
:1056800001C309FB013108FB021052084FEA340341
:105690001CEB0301504122460023CDE900100846CF
:1056A0000199FAF733FE8021B0EB010BBBF17F0FBC
:1056B00037D8CAF80CB049004FF0000C4246A2FBA4
:1056C000010E09FB01E108FB0C1980460020802235
:1056D00000E06BE01BEB020240EB00030021A2FBA9
:1056E000040C03FB04C302FB0131CDE90801404671
:1056F0004946FAF76DFE41EC1A0BDDE90801FAF7AD
:1057000067FE53EC1A2BFAF78BFEFAF7F8FE00EE61
:10571000100AF7EE000A30EE608A8AED048A002053
:1057200002900298B0F1FF3F40D104EB84004100A9
:1057300007FB05F04000B1FBF0F0401D0A21B0FB73
:10574000F1F0461EFF2E31D8CAF808600220A0FBF7
:10575000051200204FF0010C16EB0C0C40411346D3
:10576000A1FB0C2E03FB0CE301FB00310023A2FB89
:10577000078C01FB07C102FB031940464946FAF7B3
:1057800027FE41EC1A0B2046FAF715FE53EC1A2BB4
:10579000FAF746FEFAF7B3FE00EE100AF7EE000A3B
:1057A00030EE608A8AED048A0020029002980BB0E5
:1057B000BDEC088BBDE8FC8F3085000000D00140B7
:1057C00000D4014000100240001402402E2E5C4420
:1057D0007269766572735C7372635C686333325F9F
:1057E0006C6C5F75736172742E63000000000000C2
:1057F00002498988091A014A918070476880FF1F11
:105800000249C988091A014AD18070476880FF1F80
:1058100070B52B4D2D6805F001051DB1294D2A4E9F
:10582000356002E0294D284E3560294D2D7805F070
:105830000700062840D2DFE800F003080C11151A13
:10584000214D2D68234E356037E0234D214E3560C4
:1058500033E04FF400451F4E35602EE01F4D1D4EC6
:1058600035602AE04FF400451A4E356025E0184DAA
:10587000DA352D68C5F30822154D263DD5F80051BF
:105880002B0F134DDA352D6805F01F04104D263D02
:10589000D5F8005105F080050DB9104901E00A4D19
:1058A0002968651CB1FBF5F5561C75435E1CB5FBFC
:1058B000F6F5084E356000E000BF00BF70BD000087
:1058C000840601400024F4000480FF1F002D3101F4
:1058D000264005400080FF1F00127A0000366E014E
:1058E00000B50648006840F4700004490860FFF7FE
:1058F0008FFF002001498039086000BD88ED00E07D
:105900002DE9FF4107460D466946384602F002FE82
:105910000121684602F07FFD002406E05DF82400C6
:1059200002F042FD4DF82400641C042CF6DB6846AE
:1059300002F0B0FD0646034850F82500704004B060
:10594000BDE8F0813090000010B500240C480088BC
:10595000401C84B201210B4800F09AF824B1084899
:105960000088401C0649088007480088401C84B213
:1059700024B105480088401C0349088010BD000080
:105980001680FF1F004402401880FF1F10B586B02C
:1059900001210220FCF75EF902A800F055FA4FF44D
:1059A000A060029040200390002004900A20ADF8EF
:1059B000140002AA00212A4800F026F90120FBF772
:1059C000A9FE01220021264800F0D0F80120FBF7B3
:1059D000A1FE01220421224800F0B8F90120FBF7C2
:1059E00099FE4220ADF800000620ADF802001D48E7
:1059F00001906846FEF74AF9BDF90200002807DB6E
:105A000000F01F0101228A401749430941F8232071
:105A100000BFBDF902000F21002804DB0A07130EA6
:105A2000124A135406E00A07140E114A00F00F033D
:105A30001B1FD45400BFBDF9020000280DDB00BFBE
:105A400000BF00F01F02012191404209920002F1C3
:105A5000E022C2F8001100BF00BF00BF06B010BDB9
:105A6000004402404959000080E200E000E400E008
:105A700018ED00E070B50021044800F041F805463B
:105A8000284664F31F400446204670BD004402408F
:105A900070B504460D4600BF0F48844202D00F483F
:105AA000844200D104E040F25B210DA0FAF7A3FC90
:105AB00000BF00BF2DB145F00110B0F1011F00D1B2
:105AC00004E04FF4177106A0FAF795FC00BF606977
:105AD000A843606170BD00000040024000440240E5
